:020000040800F2
:1000000000290020C9010008F91D0008CB1A0008CA
:10001000F51D0008D50200081129000800000000A5
:100020000000000000000000000000003F21000868
:10003000D9020008000000003D1E00084121000810
:10004000E3010008E3010008E3010008E301000800
:10005000E3010008E3010008E3010008E3010008F0
:10006000E3010008E3010008E3010008E3010008E0
:10007000E3010008E3010008E3010008E3010008D0
:10008000E3010008E3010008E3010008E3010008C0
:10009000E3010008E3010008E3010008E3010008B0
:1000A000E3010008E3010008E3010008E3010008A0
:1000B000E3010008E3010008E3010008E301000890
:1000C000E3010008E3010008E3010008E301000880
:1000D000E3010008E3010008E3010008DD27000850
:1000E000E3010008E3010008E3010008E301000860
:1000F000E3010008E3010008E3010008E301000850
:10010000E3010008E3010008E3010008E30100083F
:10011000E3010008E3010008E3010008E30100082F
:10012000E3010008E3010008E3010008E30100081F
:10013000E3010008E3010008E3010008E30100080F
:10014000E3010008E3010008E3010008E3010008FF
:10015000E3010008E3010008E3010008E3010008EF
:10016000E3010008E3010008E3010008E3010008DF
:10017000E3010008E3010008E301000800000000BB
:10018000E3010008E3010008E3010008E3010008BF
:10019000E3010008E3010008E3010008E3010008AF
:1001A000E3010008E3010008E3010008DFF80CD0D8
:1001B00000F07EF800480047B12F00080029002019
:1001C00080F30888704700000648804706480047CB
:1001D000FEE7FEE7FEE7FEE7FEE7FEE7FEE7FEE7F7
:1001E000FEE7FEE709220008AD0100082DE9F05FF7
:1001F0000546002092469B46884606468146402496
:100200001BE0284641464746224600F041F8534647
:100210005A46C01A914110D311461846224600F0A2
:1002200028F82D1A67EB01084F46224601200021CD
:1002300000F01FF817EB00094E41201EA4F1010445
:10024000DFDC484631462A464346BDE8F09FD2B23D
:1002500001E000F8012B491EFBD270470022F6E7AF
:1002600010B513460A4604461946FFF7F0FF20462C
:1002700010BD202A04DB203A00FA02F1002070476A
:100280009140C2F1200320FA03F3194390407047D4
:10029000202A04DB203A21FA02F00021704721FADB
:1002A00002F3D040C2F12002914008431946704742
:1002B000064C074D06E0E06840F0010394E80700B3
:1002C00098471034AC42F6D3FFF774FFE82F0008CC
:1002D0000830000800BFFEE7704772B600BFFEE7B7
:1002E00010B54021014800F067FB10BD000402403A
:1002F00010B5002201B909E0012901D10A0205E087
:10030000022901D10A0201E04FF440720B2800D902
:10031000001D0E4B1B6823F440730C4C23602346D6
:100320001B681343236023461B6823F0F8032360F4
:1003300023461B68022444EAC0042343034C236081
:1003400023461B6843F48033236010BD103C0240F9
:100350001C48006800F40070B0B11A48006820F42E
:1003600000701849086000BF0846006840F400604B
:1003700008600846006820F40060086000BF084676
:10038000006840F4007008600E48006800F4806067
:10039000B0B10C48006820F480600A49086000BFD2
:1003A0000846006840F4805008600846006820F461
:1003B0008050086000BF0846006840F48060086014
:1003C00070470000003C0240134A126822F4407259
:1003D000114B1A60032906D11A461268DB131A431F
:1003E0000D4B1A600EE0012906D10B4A126842F04B
:1003F0000402094B1A6005E0074A126842F4004201
:10040000054B1A60044A12684FF4803343EA002314
:100410001A43014B1A607047103C0240074A1268A9
:1004200022F44072054B1A601A4612681A601A4686
:10043000126842F001021A6001707047103C0240DD
:1004400010B50D49096821F440710B4C216021461B
:10045000096841F4407121602146096841F00101B9
:100460002160026000BF00BF00BFBFF36F8F00BFFD
:1004700000BF00BF436010BD103C0240084A126834
:1004800022F44072064B1A601A46126842F48072D7
:100490001A601A46126842F001021A600180704721
:1004A000103C0240084A126822F44072064B1A605F
:1004B0001A46126842F400721A601A46126842F034
:1004C00001021A6001607047103C02402A4800682F
:1004D00000F0100040B12948C06940F010002749E1
:1004E000C8611020244908602348006800F02000FB
:1004F00040B12248C06940F008002049C86120206E
:100500001D4908601C48006800F0400040B11B48CD
:10051000C06940F004001949C861402016490860CC
:100520001548006800F0800040B11448C06940F0F0
:1005300002001249C86180200F4908600E48006817
:1005400000F4807048B10D48C06940F001000B49CB
:10055000C8614FF48070084908600748006800F0DF
:10056000020040B10548C06940F020000349C8615D
:1005700002200149086070470C3C0240D000002076
:1005800070B50446002500201449C86100F024FA23
:10059000054609E0601C38B124B100F01DFA401B8B
:1005A000A04201D9032070BD0D48006800F48030DE
:1005B0000028EFD10A48006800F0010010B10120C6
:1005C000074908600648006800F4F97018B1FFF7A1
:1005D0007DFF0120E7E70020E5E70000D0000020D4
:1005E0000C3C0240014691F83500022803D08020DF
:1005F000486501207047052081F8350008680068CB
:1006000020F001000A6810600020F3E72DE9F041B6
:1006100004460E460127002500BF2648007E01281B
:1006200002D10220BDE8F08101202249087600BFF6
:100630004CF25030FFF7A4FF0746002F32D1401E86
:1006400030602068012810D1207C6168FFF7BCFE73
:100650004CF25030FFF794FF07461748006848F205
:1006600004018843144908601AE0A56812E0217C5F
:100670002846FFF73DFE4CF25030FFF781FF07465A
:100680000D48006820F0FA000B4908600FB1356092
:1006900005E06D1CD4E902100844A842E7D800BF69
:1006A000FFF756FE00BF00200249087600BF38461B
:1006B000B8E70000D0000020103C0240034800686A
:1006C00040F000400149086000207047103C0240A3
:1006D0002DE9F04106460F4614461D464FF001082D
:1006E00000BF1F48007E012802D10220BDE8F08132
:1006F00001201B49087600BF4CF25030FFF740FF45
:100700008046B8F1000F23D126B9E1B23846FFF791
:1007100085FE12E0012E04D1A1B23846FFF7AEFEED
:100720000BE0022E04D121463846FFF7BBFE04E061
:1007300022462B463846FFF783FE4CF25030FFF737
:100740001FFF80460748006820F001000549086047
:1007500000BF00200249087600BF4046C6E70000FF
:10076000D0000020103C024000200949096801F037
:10077000004159B10749064A0C3A11600649116017
:100780000349096801F0004101B1012070470000F0
:10079000103C024023016745AB89EFCDF8B5024616
:1007A0000B460025002400200021E6E0012606FA81
:1007B00001F51E6806EA0504AC4273D15E68012E9D
:1007C00008D05E68022E05D05E68112E02D05E68E9
:1007D000122E13D190684F000326BE40B0434F0045
:1007E000DE68BE4030439060506801268E40B043C2
:1007F0001E79C6F300168E4030435060D0684F001B
:100800000326BE40B0434F009E68BE403043D060D8
:100810005E68022E02D05E68122E13D1CF0802F15C
:10082000200656F827004E07F70E0F26BE40B043AD
:100830004F07FF0E1E69BE403043CF0802F120066D
:1008400046F8270010684F000326BE40B0431E79CB
:1008500006F003064F00BE40304310605E6806F0AD
:100860008056B6F1805FA8D100BF00260096454EA5
:10087000366846F48046434F3E603E46366806F48E
:100880008046009600BF00BF3F4E8F0856F82700F5
:100890008E07370F0F26BE40B0433C4EB24202D106
:1008A00000262EE068E03A4EB24201D1012628E04F
:1008B000384EB24201D1022623E0374EB24201D176
:1008C00003261EE0354EB24201D1042619E0344E13
:1008D000B24201D1052614E0324EB24201D10626C1
:1008E0000FE0314EB24201D107260AE02F4EB2424C
:1008F00001D1082605E02E4EB24201D1092600E0C2
:100900000A268F073F0FBE4030431F4E8F0846F820
:100910002700284E3068A0435E6806F48036B6F59E
:10092000803F00D12043234E3060361D3068A04305
:100930005E6806F40036B6F5003F00D120431D4E38
:10094000361D3060361D3068A0435E6806F48016A0
:10095000B6F5801F00D12043164E08363060361D94
:100960003068A0435E6806F40016B6F5001F00D19B
:100970002043104E0C363060491C1029FFF416AF8E
:10098000F8BD000044380240083801400000024031
:100990000004024000080240000C02400010024027
:1009A0000014024000180240001C024000200240D7
:1009B00000240240003C014042690A408A4202D1C0
:1009C0000A04826100E0816170470AB1816101E03F
:1009D0000B04836170470000014800687047000005
:1009E00000000020034800680349097808440149D1
:1009F00008607047000000200800002010B50D4876
:100A0000006840F400700B4908600846006840F434
:100A1000806008600846006840F480700860032029
:100A200000F0A2F8002000F007F800F02BF80020FA
:100A300010BD0000003C024070B504460E4800782E
:100A40004FF47A71B1FBF0F00C490968B1FBF0F595
:100A5000284600F01AFE08B1012070BD102C07D204
:100A600000222146501E00F041F80548046001E0D4
:100A70000120F2E70020F0E7080000200C00002031
:100A80000400002008B500BF002000900E48006858
:100A900040F480400C4908600846006800F480403B
:100AA000009000BF00BF00BF00200090081F00683A
:100AB00040F08050091F08600846006800F0805030
:100AC000009000BF00BF08BD443802400146084600
:100AD000002809DB00F01F0301229A4043099B0014
:100AE00003F1E023C3F8002100BF70472DE9F05F58
:100AF00080460D461646002701F0CCFF07463946D2
:100B00002A46334601F00700C0F1070ABAF1040F84
:100B100002D94FF0040A01E0C0F1070AD14600F102
:100B2000040ABAF1070F02D24FF0000A01E0A0F167
:100B3000030AD4464FF0010A0AFA09FAAAF1010A97
:100B40000AEA020A0AFA0CFA4FF0010B0BFA0CFB44
:100B5000ABF1010B0BEA030B4AEA0B0421464046BA
:100B600001F0A0FFBDE8F09F00BF00F00702064BB8
:100B700019684FF6FF031940044B0B4343EA022167
:100B8000014B196000BF70470CED00E00000FA0552
:100B900038B5002400BF002000901D48006840F0D8
:100BA00080501B4908600846006800F080500090A3
:100BB00000BF00BF012017490864FFF70DFF04467E
:100BC00007E0FFF709FF001BB0F57A7F01D903208A
:100BD00038BD1148406800F48030B0F5803FF0D156
:100BE00001200C494864FFF7F7FE044607E0FFF7D1
:100BF000F3FE001BB0F57A7F01D90320E8E7064831
:100C0000406800F40030B0F5003FF0D10020DFE78D
:100C10004038024000000E420070004070B50446AB
:100C20000D460CB9012070BD5848006800F00F0057
:100C3000A84209D255490D700846006800F00F001F
:100C4000A84201D00120EEE7207800F0020002283F
:100C50001DD1207800F00400042805D14C4800681C
:100C600040F4E0504A490860207800F00800082865
:100C700005D14748006840F4604045490860444851
:100C8000006820F0F000A16808434149086020781E
:100C900000F00100A8B36068012807D13C4808387B
:100CA0000068C0F34040B8B90120BCE76068022882
:100CB00002D06068032807D1354808380068C0F3BF
:100CC000406048B90120AEE7314808380068C0F3F9
:100CD000400008B90120A6E72D48006820F0030075
:100CE000616808432A490860FFF776FE064609E076
:100CF000FFF772FE801B41F28831884202D903203F
:100D000091E707E02248006800F00C006168B0EB52
:100D1000810FEDD11D48006800F00F00A84209D9ED
:100D20001A490D700846006800F00F00A84201D073
:100D3000012078E7207800F00400042807D1144847
:100D4000006820F4E050E168084311490860207809
:100D500000F00800082808D10D48006820F4604021
:100D6000216940EAC1000A49086000F03FF80849DB
:100D70000968C1F30311074A515CC840064908607D
:100D800006480068FFF758FE00204CE7003C024090
:100D900008380240D02F00080C000020040000207A
:100DA00001480068704700000C00002000B5FFF704
:100DB000F7FF04490968C1F38221034A515CC84026
:100DC00000BD000008380240E02F000800B5FFF722
:100DD000E7FF04490968C1F34231034A515CC84046
:100DE00000BD000008380240E02F00082DE9F04760
:100DF000002400250026A1462548006800F00C00CC
:100E000020B1042805D008283AD105E0DFF8849005
:100E100039E0DFF8849036E01D48001F006800F0DC
:100E20003F041B48001F006800F4800078B11A4896
:100E30001749091F0968C1F38811A0FB0170014619
:100E4000224600233846FFF7D1F905460EE0114847
:100E50000F49091F0968C1F38811A0FB0170014601
:100E6000224600233846FFF7C1F905460848001F0F
:100E70000068C0F30140401C4600B5FBF6F902E0F3
:100E8000DFF8109000BF00BF4846BDE8F0870000C3
:100E9000083802400024F40000127A00F8B5044635
:100EA0000CB90120F8BD207800F00100002874D0B2
:100EB000F948006800F00C0004280DD0F6480068DE
:100EC00000F00C00082813D1F348001F006800F45C
:100ED0008000B0F5800F0BD1EF4808380068C0F3F0
:100EE0004040002859D06068002856D10120D9E739
:100EF00000BF6068B0F5803F08D1E7480838006857
:100F000040F48030E449083908601EE06068B0F5BC
:100F1000A02F0DD1E0480838006840F48020DE4959
:100F2000083908600846006840F4803008600CE02A
:100F3000D9480838006820F48030D749083908605B
:100F40000846006820F48020086000BF606890B107
:100F5000FFF742FD054606E0FFF73EFD401B642813
:100F600001D903209EE7CC4808380068C0F3404010
:100F70000028F1D011E0FFF72FFD054606E0FFF74E
:100F80002BFD401B642801D903208BE7C248083899
:100F90000068C0F340400028F1D1207800F0020042
:100FA00002285FD1BC48006800F00C0058B1BA4874
:100FB000006800F00C0008281CD1B748001F00682A
:100FC00000F48000B0B9B44808380068C0F34000AD
:100FD00020B1E068012801D0012063E7AE4808385D
:100FE000006820F0F800216940EAC100AA490839E8
:100FF000086037E0E06800B30120A8490860FFF707
:10100000EBFC054606E0FFF7E7FC401B022801D990
:10101000032047E7A04808380068C0F340000028D4
:10102000F1D09D480838006820F0F800216940EAB6
:10103000C10099490839086014E000209749086008
:10104000FFF7CAFC054606E0FFF7C6FC401B022876
:1010500001D9032026E7904808380068C0F3400013
:101060000028F1D1207800F0080008282CD1606910
:10107000A8B101208A490860FFF7AEFC054606E0EA
:10108000FFF7AAFC401B022801D903200AE7824887
:101090006C300068C0F340000028F1D014E000205C
:1010A0007F490860FFF798FC054606E0FFF794FCCF
:1010B000401B022801D90320F4E677486C30006811
:1010C000C0F340000028F1D1207800F0040004288B
:1010D00070D1002770483830006800F0805090B917
:1010E00000BF002000906C483830006840F080500D
:1010F0006949383108600846006800F08050009067
:1011000000BF00BF01276748006800F48070B0B9D5
:101110006448006840F4807062490860FFF75CFC36
:10112000054606E0FFF758FC401B022801D90320C2
:10113000B8E65C48006800F480700028F2D000BF78
:10114000A068012808D154486830006840F00100C8
:101150005149683108601DE0A06805280DD14E484E
:101160006830006840F004004B4968310860084668
:10117000006840F0010008600CE0474868300068F3
:1011800020F001004449683108600846006820F0FA
:101190000400086000BFA068A8B1FFF71DFC054669
:1011A00009E0FFF719FC401B41F28831884202D95F
:1011B000032077E626E0384868300068C0F3400036
:1011C0000028EED013E0FFF707FC054608E0FFF724
:1011D00003FC401B41F28831884201D9032061E6BB
:1011E0002D4868300068C0F340000028EFD1012F7F
:1011F00007D129483830006820F08050264938311E
:10120000086000BFA069002845D02348006800F0AE
:101210000C0008285DD0A069022845D100201F4994
:101220000866FFF7D9FB054606E0FFF7D5FB401B34
:10123000022801D9032035E6174808380068C0F3B2
:1012400040600028F1D1D4E907010843616A40EA0F
:1012500081110122A06AC2EB500041EA00412C201A
:10126000005D41EA00600C49091F086001200B493C
:101270000866FFF7B1FB054606E0FFF7ADFB401B34
:10128000022801D903200DE6034808380068C0F39E
:1012900040600028F1D03FE008380240000047429B
:1012A000800E47420070004000201C490866FFF78E
:1012B00093FB054606E0FFF78FFB401B022801D990
:1012C0000320EFE516480068C0F340600028F2D123
:1012D00022E0A069012800D1E4E51148001D06685C
:1012E00006F48001E069814214D106F03F01206AD2
:1012F00081420FD147F6C0703040616A884209D1FF
:1013000006F44031A06A814204D106F07061E06ABF
:10131000814201D00120C5E50020C3E5000047421D
:101320000038024010B504460CB9012010BD606AB7
:1013300000B900BF0021A16294F8510028B9002033
:1013400084F85000204600F033F8022084F8510061
:101350002068006820F0400021680860D4E901019D
:101360000843E16808432169084361690843218B08
:1013700001F400710843E1690843216A0843A16A46
:101380000843216808600421A06901EA1040616AED
:101390000843216848602068C06920F40060216823
:1013A000C86100206065012084F851000020BDE77D
:1013B00010B586B00446142101A8FEF74FFF1B4963
:1013C000206888422FD100BF002000901848006894
:1013D00040F48050164908600846006800F48050C8
:1013E000009000BF00BF00BF0020009010481438DC
:1013F000006840F001000E49143908600846006892
:1014000000F00100009000BF00BFE020019002202A
:10141000029000200390032004900520059001A96C
:101420000448FFF7BBF906B010BD000000300140D2
:1014300044380240000002402DE9FF5F0446884620
:1014400091461D460E9E012002900020019000BF93
:1014500094F85000012803D1022004B0BDE8F09FA9
:10146000012084F8500000BFFFF7B6FA074694F851
:1014700051B060680390AA46BBF1010F0BD00398EE
:10148000B0F5827F04D1A06810B9BBF1040F02D07F
:1014900002200190DBE0B8F1000F03D0B9F1000F9A
:1014A00000D015B901200190D1E094F85100042832
:1014B00002D0052084F8510000206065C4F83890FF
:1014C000E587A587C4F83080E586A586206460643A
:1014D0002068006800F04000402805D020680068BF
:1014E00040F0400021680860E068B0F5006F4AD124
:1014F000606810B1BAF1010F09D1206B0088216832
:10150000C860206B801C2063E08E401EE08633E0C4
:101510002068806800F00200022810D1E08E70B1CF
:10152000029801280BD1206B00882168C860206BCD
:10153000801C2063E08E401EE08600200290206820
:10154000806800F0010068B1E08F58B12068C06881
:10155000A16B0880A06B801CA063E08F401EE08719
:1015600001200290FFF738FAC01BB04204D3701C70
:1015700010B1032001906AE0E08E0028C8D1E08F0E
:101580000028C5D14AE0606810B1BAF1010F09D155
:10159000206B007821680873206B401C2063E08E6C
:1015A000401EE08634E02068806800F002000228D7
:1015B00010D1E08E70B1029801280BD1206B007819
:1015C00021680873206B401C2063E08E401EE0867B
:1015D000002002902068806800F0010068B1E08F70
:1015E00058B12068C068A16B0870A06B401CA06354
:1015F000E08F401EE08701200290FFF7EDF9C01B4D
:10160000B04201D3701C00B916B9032001901EE04E
:10161000E08E0028C7D1E08F0028C4D13A46314679
:10162000204600F01DFC20B10120019020206065C3
:101630000DE0A06850B900BF002000902068C0688D
:10164000009020688068009000BF00BF00BF0120AC
:1016500084F8510000BF002084F8500000BF0198BA
:10166000FBE6042808D14FF0E021096941F00401AC
:101670004FF0E022116107E04FF0E021096921F00D
:1016800004014FF0E0221161704770B50446254611
:10169000681EB0F1807F01D301200FE0681E4FF07B
:1016A000E02148610F214FF0FF3001F0FBF90020ED
:1016B0004FF0E021886107200861002070BD70476D
:1016C0002DE9F0470446206805682068C668206850
:1016D00047694FF00008C14605F00F08B8F1000F48
:1016E0000AD105F0200038B106F0200020B12046D4
:1016F00000F0C2FDBDE8F087B8F1000F72D007F02E
:10170000010018B906F4907000286BD005F00100B4
:1017100030B106F4807018B1E06B40F00100E06376
:1017200005F0040030B107F0010018B1E06B40F0A3
:101730000200E06305F0020030B107F0010018B1CB
:10174000E06B40F00400E06305F0080048B106F0EB
:10175000200010B907F0010018B1E06B40F008005C
:10176000E063E06B70B305F0200028B106F02000C4
:1017700010B1204600F080FD20684069C0F3801958
:10178000E06B00F0080010B9B9F1000F23D020463B
:1017900000F052FD2068406900F04000402816D15A
:1017A0002068406920F0400021684861606B50B1BA
:1017B0001748616B0865606BFEF714FF10B1606B32
:1017C000016D88470CE02046FFF779FF08E02046CE
:1017D000FFF775FF04E02046FFF771FF0020E0638C
:1017E00088E7FFE705F0800030B106F0800018B10F
:1017F000204600F089FF7DE705F0400030B106F09B
:10180000400018B1204600F027FD73E700BF71E7E4
:101810002522000810B504460CB9012010BDA069AE
:1018200000B100E000BF94F8390028B9002084F826
:101830003800204600F028F8242084F83900206879
:10184000C06820F400502168C860204600F068FDA0
:101850002068006920F49040216808612068406990
:1018600020F02A00216848612068C06840F40050D8
:101870002168C8600020E063202084F8390084F8E3
:101880003A000020CAE7000010B586B004461421D3
:1018900001A8FEF7E3FC1F492068884238D100BF49
:1018A000002000901C48006840F480201A4908601D
:1018B0000846006800F48020009000BF00BF00BF11
:1018C0000020009014481038006840F002001249CF
:1018D000103908600846006800F00200009000BF60
:1018E00000BF4FF44060019002200290002003905E
:1018F000032004900720059001A90848FEF74EFF39
:10190000002211462720FFF7F1F82720FFF7DEF825
:1019100006B010BD004800404038024000040240BC
:1019200010B5034693F83A0020282FD101B10AB927
:10193000012010BD00BF93F83800012801D102201A
:10194000F7E7012083F8380000BF99629A85DA85AD
:101950000020D863222083F83A0000BF002083F8DB
:10196000380000BF1868C06840F480701C68E060F0
:101970001868406940F001001C6860611868C06820
:1019800040F020001C68E0600020D2E70220D0E791
:1019900010B504461049206888421CD1FFF71CF896
:1019A0000E4908600846406808B9142048600C4891
:1019B0000088B0F5A05F09DA0A4801780848028873
:1019C0000088401C064B18800748815401220549B5
:1019D0000648FFF7A5FF10BD004800402C0000207E
:1019E0003400002028000020F0000020900000209B
:1019F0002DE9F84304460D4616461F464FF00009F0
:101A000094F8390020285DD105B116B90120BDE850
:101A1000F88300BF94F83800012801D10220F6E7CE
:101A2000012084F8380000BF0020E063212084F802
:101A30003900FEF7D1FF8146A684E68400BF00206E
:101A400084F8380000BF2BE0E08C401EE084A068E2
:101A5000B0F5805F16D14B460022802120460097CA
:101A600000F086FE08B10320D1E7A846B8F80000D0
:101A7000C0F3080021684860206908B9AD1C0FE078
:101A80006D1C0DE04B46002280212046009700F09F
:101A90006FFE08B10320BAE715F8010B2168486012
:101AA000E08C0028D0D14B460022402120460097F0
:101AB00000F05EFE08B10320A9E7202084F8390079
:101AC0000020A4E70220A2E7704700BFFEE7000065
:101AD00000B587B0142102A8FEF7C0FB00BF0020AC
:101AE00001907748006840F010007549086008468A
:101AF000006800F01000019000BF00BF00BF002090
:101B000001900846006840F004000860084600683C
:101B100000F00400019000BF00BF00BF0020019052
:101B20000846006840F0200008600846006800F0A1
:101B30002000019000BF00BF00BF002001900846B8
:101B4000006840F0800008600846006800F08000EF
:101B5000019000BF00BF00BF002001900846006850
:101B600040F0010008600846006800F001000190A4
:101B700000BF00BF00BF002001900846006840F091
:101B8000020008600846006800F00200019000BFF3
:101B900000BF00BF002001900846006840F04000F0
:101BA00008600846006800F04000019000BF00BFD8
:101BB00000BF002001900846006840F0080008605F
:101BC0000846006800F00800019000BF00BF002236
:101BD00010213C48FEF7F9FE002240213A48FEF76A
:101BE000F4FE4FF6FF700290032003900020049053
:101BF00002A93648FEF7D2FD4FF6EF70029003209F
:101C000003900020049002A92E48FEF7C7FD4FF66E
:101C1000FF700290032003900020049002A92C483A
:101C2000FEF7BCFD0320029003900020049002A95F
:101C30002848FEF7B3FD49F61F7002900320039079
:101C40000020049002A92448FEF7A8FD102002906D
:101C50000120039000200490059002A91948FEF786
:101C60009DFD4FF2BF3002900320039000200490AE
:101C700002A91548FEF792FD4FF6FF70029003206F
:101C800003900020049002A91448FEF787FD4FF648
:101C9000FF700290032003900020049002A91048D6
:101CA000FEF77CFD4020029001200390002004906C
:101CB000059002A90448FEF771FD07B000BD0000C1
:101CC0003038024000080240000402400010024088
:101CD00000140240001C02400000024000180240B4
:101CE000000C024010B50E480E4908604FF4827097
:101CF000486000210B488160C160016141614FF47F
:101D0000007181610021C1610162416281620A2129
:101D1000C162FFF707FB08B1FEF7DFFA10BD000054
:101D2000003001403800002010B50B480B49086016
:101D30004FF4E1304860002108488160C1600161D2
:101D40000C21416100218161C161FFF763FD08B190
:101D5000FEF7C3FA10BD00000048004090000020CC
:101D600010B504A000F086FEB42001F0F1F800F0F8
:101D700041FD10BD2A2A2A2A2A2A2A2A2A2A2A2A60
:101D80002A2A2A2056657273696F6E20312E312EF1
:101D900038202A2A2A2A2A2A2A2A2A2A2A2A2A2A9F
:101DA0002A0D0A0010B500F021FD4078012802D16B
:101DB00000F068FD02E00C4801F0E2F8FEF70CFECE
:101DC0000A4908600A48406868B10948006809681B
:101DD000081A07494968884205D30448006804493D
:101DE0000860FEF77DFA10BD0040000810000020DA
:101DF0001400002000BFFEE700BFFEE70020411EE8
:101E00000B4A11604A0D0A498039C1F88420411EED
:101E10004FF0E022C2F880124A0D06490A6000BF66
:101E200003E0002204490A54401C0B28F9D37047F0
:101E300080E100E084E200E000E400E070470000A0
:101E400001B582B04FF47A70012301AA02A9009073
:101E50000248FFF7F1FA9DF804000EBD380000209B
:101E60007CB504460D461646164800681821B0FB9E
:101E7000F1F01549B0FBF1F04FF47A71484301904D
:101E80006068B0F5827F0DD12B460022802120466C
:101E9000009600F01BF898B1606D40F0200060657E
:101EA00003207CBD00BF019800B908E00198401EE6
:101EB000019020688068C0F3C0100028F3D100BFF3
:101EC0000020EEE70C00002040420F002DE9F04119
:101ED00004460E4617461D46DDF818803EE0681C95
:101EE000D8B3FEF779FDA0EB0800A84200D2A5BB4D
:101EF0002068406820F0E000216848606068B0F524
:101F0000827F0DD1A068B0F5004F03D0A068B0F576
:101F1000806F05D12068006820F0400021680860CB
:101F2000A06AB0F5005F0DD100BF2068006820F402
:101F30000050216808602068006840F40050216863
:101F4000086000BF012084F8510000BF002084F821
:101F5000500000BF0320BDE8F081FFE720688068E3
:101F60003040B04201D1012000E00020B842B6D19B
:101F70000020F0E730B587B00446142102A8FEF730
:101F80006DF900200190204600F012F80546FEF79A
:101F9000EBFB0020029002200690049501200590A2
:101FA00001A902A8FEF732FBFEF788FB07B030BD9F
:101FB00001463A48814201D20020704738488142A8
:101FC00001D20120F9E73748814201D20220F4E72B
:101FD0003548814201D20320EFE73448814201D2E3
:101FE0000420EAE73248814201D20520E5E7314882
:101FF000814201D20620E0E72F48814201D207202A
:10200000DBE72E48814201D20820D6E72C488142E6
:1020100001D20920D1E72B48814201D20A20CCE726
:10202000B1F1016F01D20B20C7E72748814201D2ED
:102030000C20C2E72548814201D20D20BDE724488B
:10204000814201D20E20B8E72248814201D20F20FE
:10205000B3E72148814201D21020AEE71F488142F8
:1020600001D21120A9E71E48814201D21220A4E723
:102070001C48814201D213209FE71B48814201D2B4
:1020800014209AE71948814201D2152095E7184893
:10209000814201D2162090E717208EE70040000809
:1020A0000080000800C000080000010800000208CD
:1020B00000000408000006080000080800000A08E4
:1020C00000000C0800000E080040100800801008F6
:1020D00000C01008000011080000120800001408D9
:1020E000000016080000180800001A0800001C086C
:1020F00000001E082DE9F04104460D46164606F084
:10210000030008B1012000E0002000EB96001FFA58
:1021100080F8FEF729FB00270BE0D5F800C06246E7
:10212000002321460220FEF7D3FA241D2D1D781C22
:1021300087B24745F1DBFEF7C1FABDE8F081704791
:1021400010B5FEF74FFC10BD00B593B0302107A8C5
:10215000FEF784F8142102A8FEF780F800BF0020E3
:1021600001902748006840F08050254908600846E3
:10217000006800F08050019000BF00BF00BF002049
:1021800001902048006820F4404040F480401D4900
:1021900008600846006800F44040019000BF00BF9E
:1021A0000220079001200A9010200B9002200D9031
:1021B00000210E9110210F91B42110910221119153
:1021C0000421129107A8FEF769FE08B1FEF785F811
:1021D000FEF7DEFC08B1FEF780F80F200290022027
:1021E0000390002004904FF4805005900690022147
:1021F00002A8FEF713FD08B1FEF76FF813B000BD9B
:1022000040380240007000400548006840F470000B
:10221000034908604FF00060014980390860704749
:1022200088ED00E070B50546AC6B0020E085E084E9
:102230002046FFF744FA70BD0168C96821F4907127
:102240000268D1600168496921F0010102685161A9
:10225000202180F83A10704710B504462068C06805
:1022600020F040002168C860202084F83900204612
:10227000FFF72AFC002010BD70B5044694F83A0020
:1022800022284AD1A068B0F5805F13D1A56A2069E1
:1022900040B920684068C0F308002880A06A801C0C
:1022A000A06219E020684068C0B22880A06A401C83
:1022B000A06211E0206938B920684068C1B2A26A02
:1022C000501CA062117007E02068406800F07F0198
:1022D000A26A501CA0621170E08D401E80B2E085A1
:1022E000C8B92068C06820F020002168C860206854
:1022F000C06820F480702168C8602068406920F0C0
:10230000010021684861202084F83A002046FFF748
:102310003FFB002070BD0020FCE70220FAE7000030
:102320002DE9F84F04462068006920F44050E16828
:102330000843216808612169A0680843616908436E
:10234000E169084300902068C06849F20C61884345
:10235000009908432168C8602068406920F44070F3
:10236000A169084321684861E069B0F5004F75D163
:10237000E3492068884203D0E249206888426FD14F
:10238000FEF724FD814602206168A0FB01510B4647
:102390001920A9FB00712A463846FDF727FF642162
:1023A000B0FBF1F04FEA001A02206168A0FB015176
:1023B0000B461920A9FB00712A463846FDF716FF87
:1023C000074602206168A0FB01510B461920A9FBBA
:1023D00000B12A465846FDF709FF6421B0FBF1F031
:1023E00000EBC00101EB0010A7EB8000322101EBF4
:1023F000C0006421B0FBF1F000F0F8000AEB400AE5
:1024000002206168A0FB01510B461920A9FB007155
:102410002A463846FDF7EAFE074602206168A0FB1F
:1024200001510B461920A9FB00B12A465846FDF779
:10243000DDFE6421B0FBF1F000EBC00101EB001008
:10244000A7EB8000322101EBC0006421B0FBF1F06A
:1024500000F007005044216888604FE16EE0FFE71C
:10246000FEF7A4FC814602206168A0FB01510B46E7
:102470001920A9FB00712A463846FDF7B7FE6421F2
:10248000B0FBF1F04FEA001A02206168A0FB015195
:102490000B461920A9FB00712A463846FDF7A6FE17
:1024A000074602206168A0FB01510B461920A9FBD9
:1024B00000B12A465846FDF799FE6421B0FBF1F0C1
:1024C00000EBC00101EB0010A7EB8000322101EB13
:1024D000C0006421B0FBF1F000F0F8000AEB400A04
:1024E00002206168A0FB01510B461920A9FB007175
:1024F0002A463846FDF77AFE074602206168A0FBAF
:10250000015003461920A9FB00B12A465846FDF7A1
:102510006DFE6421B0FBF1F000EBC00101EB001097
:10252000A7EB8000322101EBC0006421B0FBF1F089
:1025300000F00700504421688860DFE0704920689F
:10254000884203D06F49206888426BD1FEF73EFC79
:10255000814604206168A0FB01510B461920A9FBAC
:1025600000712A463846FDF741FE82460420616824
:10257000A0FB01510B461920A9FB00712A463846E1
:10258000FDF734FE6421B0FBF1F000EBC00101EB7C
:102590000010AAEB8000322101EB00106421B0FB97
:1025A000F1F000F0F00A04206168A0FB015003463E
:1025B0001920A9FB00712A463846FDF717FE642151
:1025C000B0FBF1F00AEB001A04206168A0FB015196
:1025D0000B461920A9FB00712A463846FDF706FE76
:1025E000074604206168A0FB015003461920A9FB9F
:1025F00000B12A465846FDF7F9FD6421B0FBF1F021
:1026000000EBC00101EB0010A7EB8000322101EBD1
:1026100000106421B0FBF1F000F00F00504421687D
:1026200088606BE0FEF7C2FB814604206168A0FB76
:10263000015003461920A9FB00712A463846FDF7D0
:10264000D5FD824604206168A0FB01500346192095
:10265000A9FB00712A463846FDF7C8FD6421B0FB8E
:10266000F1F000EBC00101EB0010AAEB8000322179
:1026700001EB00106421B0FBF1F000F0F00A04203F
:102680006168A0FB015003461920A9FB00712A468E
:102690003846FDF7ABFD6421B0FBF1F00AEB001A00
:1026A00004206168A0FB017003461920A9FB0050BB
:1026B00001463A462846FDF799FD07460420616821
:1026C000A0FB015003461920A9FB00B12A46584639
:1026D000FDF78CFD6421B0FBF1F000EBC00101EBD4
:1026E0000010A7EB8000322101EB00106421B0FB49
:1026F000F1F000F00F00504421688860BDE8F88FC9
:102700000010014000140140014691F839002128D1
:102710002CD18868B0F5805F0FD10A6A1088C0F3A9
:1027200008000B685860086918B9086A801C0862BC
:1027300009E0086A401C086205E00B6A581C086240
:1027400018780B685860C88C401E80B2C88458B98D
:102750000868C06820F080000B68D8600868C0680E
:1027600040F040000B68D860002070470220FCE772
:102770002DE9F04104460D4617469846069E21E095
:10278000701CF8B12EB1FEF727F9A0EB0800B0429B
:1027900018D92068C06820F4D0702168C86020680B
:1027A000406920F0010021684861202084F8390048
:1027B00084F83A0000BF002084F8380000BF0320EE
:1027C000BDE8F081206800682840A84201D10120BE
:1027D00000E00020B842D3D00020F1E710B5024855
:1027E000FEF76EFF10BD000090000020004870470B
:1027F000F014002010B500F08DF810221A491B4883
:1028000000F0B2F819480078212805D017480021B7
:10281000016041608160C16014484078012822D184
:102820001348FFF7A7FB4CF25030FDF7A9FE114803
:10283000FFF7A0FB4CF25030FDF7A2FE0E48FFF769
:1028400099FB4CF25030FDF79BFE0C48FFF792FBD2
:102850004CF25030FDF794FE0948FFF78BFB4CF229
:102860005030FDF78DFE10BD00F0EF01F014002098
:10287000004000080080000800C0000800000108B7
:102880000000020810B5064840680549896888427A
:1028900002D200F007F802E000200149487010BDA4
:1028A000F014002010B500241548406814498968C8
:1028B000884223D212484068114989686FF30B019E
:1028C000884204D10E480089C0F30B0401E04FF4A4
:1028D00080540B4840680B4A811822460A4800F091
:1028E00043F807494968094A881822460649FFF70C
:1028F00001FC0348406820440149486010BD0000C5
:10290000F01400200010E001001500200040000835
:1029100000BFFEE710B5012210211148FEF755F85F
:1029200000F058F80F490880084600884EF61871E4
:10293000884213D1032000F073F8044604F001002C
:1029400060B9002210210648FEF73FF8B720FFF7D4
:1029500077FA012210210248FEF737F810BD000077
:1029600000080240360000202DE9F04106460C46E2
:102970001746002210211548FEF727F80320FFF71D
:102980005FFA134800884EF61871884202D1200E73
:10299000FFF756FAC4F30740FFF752FAC4F30720D3
:1029A000FFF74EFAE0B2FFF74BFA002505E0FF20F3
:1029B000FFF746FA7055681C85B2BD42F7DB01226D
:1029C00010210248FEF701F8BDE8F081000802403E
:1029D0003600002010B50024002210210F48FDF71A
:1029E000F4FF9020FFF72CFA0020FFF729FA0020CF
:1029F000FFF726FA0020FFF723FAFF20FFF720FA5F
:102A000044EA0024FF20FFF71BFA044301221021AF
:102A10000248FDF7DAFF204610BD00000008024022
:102A200070B5044600250026012C04D0022C04D0E9
:102A3000032C06D103E0052605E0352603E0152624
:102A400001E0052600BF00BF002210210848FDF765
:102A5000BCFF3046FFF7F4F9FF20FFF7F1F9054618
:102A6000012210210248FDF7B0FF284670BD00008A
:102A7000000802400FB4054B10B503A9044A0298A0
:102A800000F034F810BC5DF814FB0000652F00085E
:102A90002000002002480068C0F3022070470000B8
:102AA0000CED00E010B5002804DB0A07130E054A00
:102AB000135406E00A07140E034A00F00F031B1F0D
:102AC000D45410BD00E400E018ED00E002E008C8B6
:102AD000121F08C1002AFAD170477047002001E098
:102AE00001C1121F002AFBD1704700002DE9FF4FE2
:102AF0008DB00F460546002606E025280BD0DDE9FF
:102B00000F1290476D1C761C28780028F5D111B063
:102B10003046BDE8F08F0024A246A1460122EC49D0
:102B200000E0044315F8013F203B02FA03F008429D
:102B3000F7D128782A2810D06FF02F022878A0F13A
:102B40003001092914D80AEB8A0102EB410144F053
:102B5000020400EB010A6D1CF0E701CF5FEA000AF6
:102B600003D544F40054CAF1000A44F002046D1C79
:102B700028782E2817D115F8010F44F004042A28CC
:102B80000ED06FF02F022878A0F1300109290AD861
:102B900009EB890102EB410100EB01096D1CF2E731
:102BA00057F8049B6D1C28786C280FD006DC4C2845
:102BB00017D068280DD06A2814D104E0742810D0EA
:102BC0007A280FD10DE044F400140AE044F4801494
:102BD00001E044F440146978814202D104F5801484
:102BE0006D1C6D1C2A786E2A1FD00CDC632A31D034
:102BF00004DC002A8BD0582A11D1A3E0642A68D0C3
:102C0000692A0CD165E0732A2ED004DC6F2A73D0B8
:102C1000702A04D19BE0752A6FD0782A6ED01046B6
:102C2000DDE90F129047761C50E1C4F302500228F0
:102C300006D0032809D0042801CF09D0066045E159
:102C400001CFF117C0E9006140E101CF06803DE10D
:102C500006703BE117F8040B8DF8000000208DF89A
:102C60000100EB46012003E057F804BB4FF0FF30B2
:102C700061074FF0000102D40DE008F10101884620
:102C800049450FDA8045F8DB1BF808100029F4D11C
:102C900008E008F1010188468142FADB1BF80810C0
:102CA0000029F6D1DDE90F23AAEB08008146214671
:102CB00000F036F9304400EB080604E0DDE90F12BD
:102CC0001BF8010B9047B8F10108F7D2214648469E
:102CD000F7E00A21C4F302534FF0000B0891022BD6
:102CE00004D001CFC117032B09D00AE0FF1D27F044
:102CF0000707F7E8020108E032E01FE020E000B239
:102D0000C117042B01D140B2C117031E71F100039A
:102D100007DA4FF0000CD0EB0C006CEB01012D2317
:102D200002E0230504D52B238DF82430012303E092
:102D3000E30701D02023F7E7984658E00A2110E086
:102D400010210EE010204FF0000B08900CE0102135
:102D50004FF0000B44F004044FF00809089103E021
:102D600008214FF0000B0891C4F30253022B04D04A
:102D700001CF0021032B06D006E0FF1D27F0070737
:102D8000F7E8020103E080B2042B00D1C0B24FF09B
:102D9000000823072BD5702A07D0DDF820C08CF05F
:102DA000100C5CEA0B0C05D00EE040238DF82430AB
:102DB000012308E050EA010306D030238DF82430C7
:102DC0008DF8252002239846DDF820C08CF0080CF1
:102DD0005CEA0B0C0BD150EA010301D1630706D565
:102DE00030238DF824304FF00108A9F10109582A49
:102DF00004D038A20B9208AA0A920BE03AA2F9E793
:102E00005B46089AFDF7F2F90B9B9B5C0A9A521EEF
:102E10000A92137050EA0102F2D10A98ADEB000059
:102E200000F1200B600702D524F4803401E04FF05C
:102E30000109D94502DDA9EB0B0000E0002000EB01
:102E40000B0141440890AAEB010AE00306D4DDE936
:102E50000F232146504600F063F806444FF0000966
:102E600008E009A911F80900DDE90F12904709F1FE
:102E70000109761CC145F4DBE0030CD5DDE90F2325
:102E80002146504600F04CF8064404E0DDE90F12FC
:102E900030209047761C0899481E08900029F5DCE0
:102EA00008E00A980A990078491C0A91DDE90F1296
:102EB0009047761CBBF10001ABF1010BF1DC214620
:102EC0005046DDE90F2300F019F806446D1C1BE69F
:102ED00009280100303132333435363738396162F0
:102EE00063646566000000003031323334353637B4
:102EF0003839414243444546000000002DE9F04185
:102F0000044600251E461746880404D405E03946C9
:102F10002020B0476D1C641EF9D52846BDE8F0811D
:102F20002DE9F041044600251E469046C80301D510
:102F3000302700E02027880404D505E041463846C4
:102F4000B0476D1C641EF9D52846BDE8F08100002D
:102F500010B504460420FEF784FB0148046010BD50
:102F60001C00002013B50C464FF47A730122694609
:102F70000248FEF73DFD00981CBD000090000020B7
:102F800010B50446206808490840B0F1005F0AD136
:102F9000FEF734FF6068054908602068FDF710F906
:102FA00002480068804710BD0000FE2F240000206A
:102FB000FDF724FDFFF7C8F8FEF78AFDFEF792FE45
:102FC000FEF7B2FEFEF7CCFE01E0FEF7EBFEFCE7FB
:102FD00000000000000000000102030406070809C9
:102FE0000000000001020304083000080000002077
:102FF00038000000CC2A00084030000838000020CB
:10300000C8280000DC2A00080000000010000000B2
:10301000010000000024F400000000000000000097
:10302000320000000000000000000000000000006E
:10303000000000000000000000000000000017EF8A
:04000005080001AD41
:00000001FF
