:020000040800F2
:10000000280A0120F9030008F5830008457000085C
:10001000117E00082521000891AD000800000000B5
:10002000000000000000000000000000390300088C
:10003000F73400080000000095030008659D0008E3
:100040001304000813040008130400081304000834
:100050001304000813040008130400081304000824
:100060001304000813040008130400088D3300086B
:100070009D330008AD330008BD33000813040008A9
:10008000CD330008DD330008130400081304000812
:10009000130400081304000813040008993B000827
:1000A00013040008130400081304000813040008D4
:1000B000959E0008A59E0008B59E00081304000840
:1000C00013040008130400081304000813040008B4
:1000D000130400081304000805A9000819A9000862
:1000E0001304000813040008130400081304000894
:1000F0001304000813040008130400081304000884
:100100001304000813040008130400081304000873
:1001100015A0000825A00008130400081304000817
:100120001304000813040008130400081304000853
:100130001304000813040008130400081304000843
:100140001304000813040008130400081304000833
:1001500013040008130400081304000829A9000868
:100160001304000813040008130400081304000813
:100170001304000813040008130400080000000022
:10018000130400081304000839A000084DA000085B
:1001900013040008130400081304000813040008E3
:1001A00013040008130400081304000800F002F808
:1001B00000F0B2F80AA090E8000C82448344AAF14F
:1001C0000107DA4501D100F0A7F8AFF2090EBAE84D
:1001D0000F0013F0010F18BFFB1A43F0010318477B
:1001E00098FA0000B8FA00000A444FF0000C10F82A
:1001F000013B13F0070408BF10F8014B1D1108BFA5
:1002000010F8015B641E05D010F8016B641E01F844
:10021000016BF9D113F0080F1EBF10F8014BAD1C94
:100220000C1B09D16D1E58BF01F801CBFAD505E0B2
:1002300014F8016B01F8016B6D1EF9D59142D6D30C
:10024000704700000023002400250026103A28BF34
:1002500078C1FBD8520728BF30C148BF0B60704738
:100260006E2900F0E484702900F0618266290FF0A5
:10027000908265290FF08D8267290FF08A826129AB
:100280000FF0898203681B0A28BF41F080016929A9
:1002900000F0D281642900F0CF81752900F0CC8173
:1002A0006F2900F0DC85782900F02D82E92900F023
:1002B0007785E42900F07485F52900F07185EF2930
:1002C00000F0D985F82900F02C820368DB0928BFEB
:1002D00041F08001632900F0E684732900F0EB848B
:1002E000E32901F0E181F32901F0E6810020704764
:1002F0001FB50FF049FA01F035FA04000020002183
:100300000FF02CFA401C6060002000210FF010FA62
:10031000E0601FBD10B510BD01F0F6F91146FFF702
:10032000E7FF0BF07FFA01F0D3FA03B4FFF7F2FF17
:1003300003BC0BF02FF800002C4B19680868B0E8DC
:10034000F04F80F30988BFF36F8F4FF0000080F308
:10035000118870470000000008480068006880F3BA
:1003600008884FF0000080F3148862B661B6BFF3CE
:100370004F8FBFF36F8F00DF00BF00BF08ED00E0BD
:10038000DFF80C00016841F470010160704700BFA4
:1003900088ED00E0EFF30980BFF36F8F134B1A680D
:1003A0001EF0100F08BF20ED108A20E9F04F1060FA
:1003B00009B44FF0500080F31188BFF34F8FBFF3A3
:1003C0006F8F0DF059FF4FF0000080F3118809BCCA
:1003D00019680868B0E8F04F1EF0100F08BFB0ECC5
:1003E000108A80F30988BFF36F8F704740000020A8
:1003F000EFF305807047000009488047094800472F
:10040000FEE7FEE7FEE7FEE7FEE7FEE7FEE7FEE7C4
:10041000FEE7FEE704480549054A064B7047000021
:10042000799E0008AD01000828EC0020280A012070
:1004300028F6002028F60020704753EA020C00F04E
:1004400069802DE9F04B4FF00006002B1FBFB3FA77
:1004500083F503FA05F424FA05F65E4012BF16434D
:10046000B2FA82F502FA05F4C5F120051EBF22FAA0
:1004700005FC44EA0C04203556EA044C4FEA1444C7
:1004800018BF641C4FF000084FF00009904271EB58
:10049000030C39D3002919BFB1FA81F701FA07F625
:1004A000B0FA80F700FA07F6C7F120071EBF20FA5E
:1004B00007FC46EA0C062037B6FBF4FCA7EB050761
:1004C000103F07F01F0BCBF120060CFA0BFB2CFAA8
:1004D00006F644BFB3460026202FA4BF5E464FF069
:1004E000000B5BEA060C08BF4FF0010B19EB0B0980
:1004F000ABFB027C48EB0608C01B06FB02CC0BFBE7
:1005000003CC71EB0C01C1E70B460246414648465D
:10051000BDE8F08B13B54FF000004FF00001AFF3D2
:100520000080BDE81C4070470FB41CB5084B06AAFC
:100530007B4469460090059800F093FB0446002038
:10054000694600F0A1FB20461CBC5DF814FB0000CE
:10055000550700000FB4044910B503AA029800F033
:10056000AFFB10BC5DF814FB280F00200FB41CB5C6
:10057000084B06AA7B4469460090059800F071FB81
:1005800004460020694600F07FFB20461CBC5DF855
:1005900014FB00001107000070B50446856900686F
:1005A000C10601D5302600E02026C00707D070BD67
:1005B000D4E9012130469047206A401C20626D1E1C
:1005C000F6D570BD70B5044685690078C00707D1BF
:1005D00070BDD4E9012120209047206A401C206290
:1005E0006D1EF6D570BD70B50C460546012A05D0C6
:1005F0002878800600D5EA69002302E0012305E09F
:100600005B1C934202D2E05C0028F9D1A869E6188D
:10061000C01AA861286A184428622846FFF7BCFF60
:1006200004E0D5E9012114F8010B9047B442F8D356
:100630002846FFF7C7FF70BD2DE9F04106460024AC
:1006400010687529314616A510D000F085FA0028EB
:1006500002DA404213A507E031688A0701D512A5E6
:1006600002E0490704D511A5012401E000F07DFA5C
:1006700000210A2206F1240709E0B0FBF2FCB0FBDE
:10068000F2F302FB1C00303078541846491C002855
:10069000F3D123462A463046BDE8F04100F06EBA59
:1006A000000000002D0000002B00000020000000D2
:1006B000F0B40D460188090502D5214C7C4402E0C6
:1006C0001F4C7C440E34002100F1240608E002F0A7
:1006D0000F071209E75D42EA03721B097754491CB0
:1006E00052EA0307F3D102780023120704D5702DD4
:1006F00006D009B1022311342246F0BC00F03EBA04
:1007000001231034F8E770B504460D462146106801
:1007100000F02BFA024629462046BDE8704000232F
:10072000C6E7D21D22F00703D3E90023C0E7036820
:10073000126843F0200303600823C3610023B7E776
:1007400016F400002DE9F05F894604464FF0000AD8
:10075000DFF874B1FB44C0F820A02046E168884768
:10076000002874D0252806D0D4E901219047206ABA
:10077000401C2062F1E700265F462046E16888477A
:100780002028054607DB312D05D2781910F8200CFA
:1007900008B10643F1E7B00701D526F00406C4F816
:1007A0001CA00027C4F818A02A2D09D028460AF05A
:1007B000EAFD38B304EB8708303DC8F8185019E05B
:1007C00059F8041B204604EB87029161E1688847D1
:1007D000012F054618D1E069002820DA26F020060E
:1007E0001DE0D8F8180000EB800005EB4000303821
:1007F000C8F818002046E168884705460AF0C3FD9E
:100800000028EED1012F0AD02E2D08D12046E16814
:1008100088477F1C0546022F46F02006C4DBA069EE
:10082000002803DA404246F00106A061F00701D03B
:1008300026F010066C2D0BD0682D09D04C2D39D028
:100840006A2D35D0742D35D07A2D33D016E038E0AE
:10085000E1682F4620468847B842054609D16C2FEB
:1008600026D04FF48060E16806432046884705465D
:1008700004E06C2F1AD04FF4807006430DB3A5F13D
:100880004100192802D8203546F400664A46294618
:10089000204626604E46FFF7E3FC80B101280BD0CE
:1008A000F61D26F0070000F1080956E74020E4E7AE
:1008B0008020D8E70020D6E706F104094DE7284656
:1008C00052E7206ABDE8F09FA6F3000030B5054668
:1008D0000B462A4613F8014B12F8010B08B1A0424F
:1008E000F8D01CB1002802D06D1CF1E7284630BDBD
:1008F00040EA010310B59B070FD1042A0DD310C89D
:1009000008C9121F9C42F8D020BA19BA884201D9EE
:10091000012010BD4FF0FF3010BD1AB1D30703D036
:10092000521C07E0002010BD10F8013B11F8014BEC
:100930001B1B07D110F8013B11F8014B1B1B01D108
:10094000921EF1D1184610BD40EA0103024630B5AF
:100950009B0710D14FF0013400E008C208C91D1BED
:100960009D4315EAC41FF8D013F0FF0102F8011BE4
:100970000DD01B0AF8E711F8013B002B02F8013BF0
:1009800005D011F8013B002B02F8013BF3D130BD3B
:1009900010B5431C02E010F8011B71B18107FAD1B8
:1009A0004FF0013202C88C1A8C4314EAC211F9D0FC
:1009B000C01A0A0603D0C01E10BDC01A10BD0A041A
:1009C00001D0801E10BD0902FCD0401E10BD032ABC
:1009D00040F2308010F0030C00F0158011F8013B5C
:1009E000BCF1020F624498BF11F801CB00F8013B43
:1009F00038BF11F8013BA2F1040298BF00F801CB07
:100A000038BF00F8013B11F0030300F03F82083AC1
:100A1000C0F0088051F8043B083A51F804CBA0E834
:100A20000810F5E7121D5CBF51F8043B40F8043B89
:100A3000AFF30080D20724BF11F8013B11F801CBBE
:100A400048BF11F8012B24BF00F8013B00F801CB8F
:100A500048BF00F8012B704702F0FF0343EA03226E
:100A600042EA024200F002B84FF000020429C0F04E
:100A7000128010F0030C00F01B80CCF1040CBCF1D0
:100A8000020F18BF00F8012BA8BF20F8022BA1EB22
:100A90000C0100F00DB85FEAC17C24BF00F8012B07
:100AA00000F8012B48BF00F8012B70474FF00002FF
:100AB00000B5134694469646203922BFA0E80C5054
:100AC000A0E80C50B1F12001BFF4F7AF090728BF2F
:100AD000A0E80C5048BF0CC05DF804EB890028BFAB
:100AE00040F8042B08BF704748BF20F8022B11F0D4
:100AF000804F18BF00F8012B704710B5044610F066
:100B0000030F08BF11F0030F40F015804FF0013EB6
:100B1000121FC0F20E8051F8043BA3EB0E0C2CEA1E
:100B2000030C1CEACE1C08BF40F8043BF0D0A1F136
:100B3000040102F10402521E08DB11F8013B002BF4
:100B400000F8013BF7D11146FFF78EFF204610BD9C
:100B5000704770477047704709684A0501D540B231
:100B60007047C905FCD500B2704709684A0501D530
:100B7000C0B27047C905FCD580B270472DE9F04777
:100B80000D4699469246044600F1240801688806FD
:100B900004D5E06921F01001216000E00120A842A5
:100BA00001DD471B00E00027A1697A1902EB09006B
:100BB000081AA0612078C00602D42046FFF7ECFC9A
:100BC000002608E0D4E901211AF806009047206ABF
:100BD000401C761C20624E45F4DB2078C0060AD506
:100BE0002046FFF7D9FC06E0D4E9012130209047E8
:100BF000206A401C2062381EA7F10107F4DC07E0E0
:100C0000D4E9012118F805009047206A401C2062B1
:100C1000281EA5F10105F3DC2046FFF7D3FC207860
:100C2000000602D50220BDE8F0870120FBE711682D
:100C30000268006A530501D508700AE0D30501D5A2
:100C4000088006E0130603D5C217C1E9000200E0E0
:100C5000086001207047000001694A1C02610878A1
:100C6000704700B58FB0CDE90131002105910549EC
:100C70007944CDE9031011466846FFF763FD0FB0D4
:100C800000BD0000E5FFFFFF0A6802F8010B0A60E3
:100C9000704710B5436913B1AFF3008001E0FFF76F
:100CA000A2FC012010BD127800F124010A7000227C
:100CB0004A700122EDE711684FF0FF32E9E70000CA
:100CC000074B70B50D467B44FFF7CBFF0446284623
:100CD00000F0F6FC10B14FF0FF3070BD204670BD43
:100CE0007BA900002DE9FF5F15468A460446DFF820
:100CF000AC80F8440027D8E900103E46CDE900104A
:100D000010E03AF816106A4602A800F0DDFC411C1B
:100D100007D02178890603D5E269391891420DD8A8
:100D20000744761C2078800602D5E069B84205DDCC
:100D3000AE42E6DB3AF816000028E2D1A069C01BFB
:100D4000A0612046FFF728FCD8E90010CDE900108B
:100D5000002017E03AF818106A4602A800F0B4FC28
:100D6000B0F1FF3F81460BD000250DF1080B05E0E7
:100D7000D4E901211BF8050090476D1C4D45F7D3C0
:100D800008F10100B0428046E4DB206A384420626A
:100D90002046FFF717FCBDE8FF9F00001AEE000099
:100DA0002DE9F0418046D21D22F007020025D2E94C
:100DB0000002F52915A614D0011E72F1000106DA11
:100DC0000023D0EB030063EB020211A608E0D8F881
:100DD00000108B0701D50FA602E0490701D50EA62A
:100DE00001251146002408F1240704E000F080F8F2
:100DF00030323A55641C50EA0102F7D12B46324694
:100E000021464046BDE8F041FFF7B8BE00000000B3
:100E10002D0000002B0000002000000030B4002155
:100E200000F1240408E002F00705D208303542EA58
:100E30004372DB086554491C52EA0305F3D1046888
:100E4000002310A2250707D5A40600D421B1C46948
:100E500001230DA2641EC46130BCFFF78FBE10B524
:100E6000044621461068FFF780FE02462046BDE892
:100E700010400023D2E7D21D22F00701D1E9002360
:100E8000CCE70000000000003000000010B5203A60
:100E9000C0F00B80B1E81850203AA0E81850B1E833
:100EA0001850A0E81850BFF4F5AF5FEA027C24BFE9
:100EB000B1E81850A0E8185044BF18C918C0BDE8E0
:100EC00010405FEA827C24BF51F8043B40F8043BA9
:100ED00008BF7047D20728BF31F8023B48BF11F85E
:100EE000012B28BF20F8023B48BF00F8012B7047B8
:100EF00030B5B0F10A024FEA900E71F100034EEAEC
:100F0000817EB0EB0E0061EB91014FEA101E4EEABC
:100F1000017E10EB0E0041EB11114FEA102E4EEA4C
:100F2000016E10EB0E0041EB11214FEA104E4EEA1C
:100F3000014E10EB0E0041EB1141401841F1000150
:100F40004FEAD00040EA41704FEAD10110EB800532
:100F50004FEA810444EA907444EB01046D1944EBB8
:100F60000404521BA3414FF0000348BF0A3200D5CE
:100F700030BD401C41F1000130BD70472DE9FF4FED
:100F80000C461E464FF0FF378BB0D2E90001DDF86A
:100F900060800A908A46C1F30A5505B93D46002192
:100FA00008464FF00000BAF1000F00F4400005DAE7
:100FB00000EB80004FF4400101EA50004FEA9059E5
:100FC000B9F1010F00DDB9460A9850EA4A000ED087
:100FD00044F61050A5F2FF3545432F14B8F1000F29
:100FE0001ED07542291E1EDDC9F100021CE0B8F1B9
:100FF000010F4FF0000001D0302103E0F24305E083
:101000002154401CB042FBDB304600220021215419
:101010000B99C1F80880C1E900200FB0BDE8F08F3E
:10102000BD1B6D1CDEE74A4600DA694206A800F0E7
:10103000DDFB06AB93E8070003AB83E807005046EF
:101040000A9900F093FC8DE80700A0F500501F38C6
:1010500000900398002D0ADD42F21F014A46084421
:10106000002303A90390684600F0FCFE09E0A0F508
:1010700000504A461F38002303A90390684600F039
:1010800006FF8DE807000004000C03D04FF0FF308E
:10109000410800E01046B8F1000F03D00022009292
:1010A00015461EE0751E05D4FFF722FF303262554B
:1010B0006D1EF9D5B3460122084302D000227F1CE1
:1010C00004E02078302801D100227F1E002A0997F1
:1010D00084D01DE0112D07DAFFF70AFF3032625588
:1010E0006D1C50EA0102F5D1084302D00098C8B146
:1010F0000EE00021681E05E0235C625C635422540C
:10110000401E491C8142F7DBAB46A81B401E0990DC
:10111000002004F80B000B98099AC0F80880C0E979
:10112000002B7AE711264FF0000857E72DE9F04F22
:1011300088460446D21D22F0070191B0D1E9000192
:10114000CDE90A010AF0E2F802460B98C00F01D07F
:101150002D2007E02068810701D52B2002E0202107
:1011600001EAC000032A099001D0072A05DB0346E3
:101170004146204600F0FAFA0BE12078800601D5BE
:10118000E06900E00620B8F1650F814606D0B8F1AD
:10119000660F18D0B8F1670F70D131E00020B9F1B7
:1011A000110F009001DB112301E009F101030AAAEC
:1011B00001A90CA8FFF7E2FEDDE90C70002609F199
:1011C0000105834647E001204B4600904FF0004761
:1011D0000AAA01A90CA8FFF7D1FEDDE90DB00C9910
:1011E0005D46002610B909F101000D18B9EB0500A4
:1011F00003D4C0F1FF3609F10105A5EB09002BE08E
:10120000B9F1010F01DA4FF001090020B9F1110F16
:101210000090484601DD112300E003460AAA01A917
:101220000CA8FFF7ABFEDDE90C704D4600268346A7
:10123000207800070AD4AB4500DA5D4601A8012DED
:1012400004DD411911F8011C302907D04F4502DA9D
:1012500017F1040F04DA012082460FE06D1EEEE75D
:10126000002F02DCED1B3E4403E0781CA84200DDA9
:101270007D1CB81B00F1010A4FF0004720780007E1
:1012800003D4AA4501DB4FF0FF3A0021B7F1004F2C
:101290000DF143088DF8431024D002202B23002F9A
:1012A00001DA7F422D230A21021EA0F1010000DC99
:1012B0005FB197FBF1FC97FBF1F201FB1C7C174639
:1012C0000CF1300C08F801CDEEE7A8F10100037035
:1012D0002188090501D5452100E06521A0F101081B
:1012E00000F8011C09980FA9A1EB0807FF1D00B128
:1012F0000120411901EBEA70A1693844081A401E27
:10130000A0612078C00602D42046FFF745F909986D
:1013100028B1D4E901219047206A401C206220783E
:10132000C00622D52046FFF737F91EE0002E04DB69
:10133000B34502DD01A8805D00E03020D4E9012141
:101340009047206A401C2062761CAAF101005FEAE7
:10135000000A0AD100F006FAC0680168405CD4E9CE
:1013600001219047206A401C2062281EA5F101053A
:10137000DCDC07E0D4E9012118F8010B9047206A72
:10138000401C2062381EA7F10107F3DC2046FFF75E
:1013900019F9032011B041E62DE9F04F04460D463E
:1013A000D21D22F0070089B0D0E90097484639469F
:1013B00009F0ACFF0246F80F01D02D2307E02068AA
:1013C000810701D52B2302E0202101EAC0038DF81B
:1013D00020300BB1012000E00020032A824601D01A
:1013E000072A04DB2946204600F0C0F93FE12078B7
:1013F000800601D40D2500E0E569C7F30A560D2DDE
:1014000049DA00214FEA175B08464FF00000002F31
:1014100000F4400007DA00EB80004FF4400100EBDD
:10142000D07001EA60008115012901DD4FF0FF3124
:1014300000224FEA850CBCF1180F06D31346ACF11D
:1014400018004FF08052C24003E04FF4801323FA9B
:101450000CF30CF10C0CBCF1200F04D3ACF1200CFC
:1014600009FA0CF001E007FA0CF000294FF00048EF
:1014700001DD18B90FE00ED140450CD319EB02097C
:101480005F4121B9404502D19F4329EA0209BBEBE4
:10149000175F00D0761C2088000502D57B48784471
:1014A00002E07A487844193808AA302302F80A3052
:1014B000037C0AF10101002E0AF1020A53546A4624
:1014C00002DC4FF0300101E04FF031014FF0010834
:1014D0008DF8001002D0A6F2FF3603E059EA47016A
:1014E00000D06B4E002D02DC2178090704D54FF0A7
:1014F00002082E218DF80110C44600210BE0C7F32D
:1015000003433F01C35C491C6D1E02F808300529E6
:1015100008F1010801DA002DF1DC00210CE000EBFC
:101520001973491C1B786D1E082902F808304FEA10
:10153000091908F1010801DA002DF0DC21688B0699
:1015400002D516E0A8F10108E04505DD02EB08032D
:1015500013F8013C302BF5D0B8F1000F09DD02EB98
:10156000080313F8013C2E2B03D1090701D4A8F17D
:101570000108002D05DD3E2102F808106D1E08F15E
:101580000108407C002E02F8080008F1010804DA86
:101590002D20764202F8080002E02B2002F8080015
:1015A0000A214FF47A70864208F101080BDB96FBA2
:1015B000F0F3303302F8083096FBF0F308F101083D
:1015C00000FB136601E0642E0CDB642096FBF0F355
:1015D000303302F8083096FBF0F308F1010800FB05
:1015E000136601E00A2E06DB96FBF1F0303002F8BC
:1015F000080008F1010896FBF1F001FB10603030A3
:1016000002F80800A16908F1010808EB050202EBE5
:101610000A00081AA0612078C00602D42046FEF70E
:10162000BBFF216A08AE01EB0A00206204E0D4E9A6
:10163000012116F8010B9047BAF1010AF7D2207880
:10164000C00602D52046FEF7A7FF6E4609E016F851
:10165000010B3E280FD0D4E901219047206A401C9D
:101660002062B8F10108F2D22046FEF7ABFF09B0C4
:101670000320BDE8F08F206A2844206203E0D4E90B
:101680000121302090476D1EEBD3F8E789E600007A
:1016900002FCFFFF10B5436913B1AFF3008001E016
:1016A000FFF720FB012010BD128800F12401828485
:1016B0000022C2840122EDE711684FF0FF32E9E712
:1016C000007B00F08000704770B516460C4605465A
:1016D00000F040F8036893F80101012806D0FF2CC0
:1016E0000FD8185D68B101202C7070BDD3F80701C8
:1016F0003246214603F2071303442846BDE87040F2
:1017000018474FF0FF3070BD754600F0EBF8AE465D
:1017100005006946534620F00700854618B020B5FD
:10172000FEF778FEBDE820404FF000064FF00007BE
:101730004FF000084FF0000B21F00701AC46ACE879
:10174000C009ACE8C009ACE8C009ACE8C0098D46E6
:101750007047000010B500F005F8001D10BD00BF77
:10176000FDDF000000487047E4EB00202DE9F04168
:101770001F46044603260168072A01F4006004DBC3
:1017800008B116A505E016A503E008B115A500E00F
:1017900015A521F010002060A069C01EA0610FB146
:1017A000401EA0612046FEF7F7FE4FB1D4E90121AB
:1017B00038469047206A401C2062C01C206206E028
:1017C000206AFAE7D4E9012115F8010B9047761E4B
:1017D000F8D22046FEF7F6FEBDE8F0814E414E00FD
:1017E0006E616E00494E4600696E66002DE9F04755
:1017F000814616468AB0354878440DC88DE80D00FC
:1018000032487844801C03AC0DC884E80D0041F6D2
:101810009B300844372190FBF1F290FBF1F5A5F1E4
:10182000800501FB12041B3C02D56442012000E04C
:101830000020DFF898A080460027FA44AAF1BE0AEB
:101840000EE0E0070AD03246684607EB4701012365
:101850000AEB810100F01BFB8DE8070064107F1C80
:10186000002CEED1194F7F44AE3F19E0E80715D0A8
:1018700007EB04100DF1180A90E80E008AE80E003C
:10188000C068F04201D1981908903246012306A998
:1018900003A800F0FCFA03AB83E807006D10641C9A
:1018A000002DE3D14FF0010332466946B8F1000F35
:1018B00003A802D000F0D6FA01E000F0E8FAC9E986
:1018C0000001C9F808200AB0BDE8F087C0E30000B5
:1018D00010B50446AFF300802046BDE81040FEF787
:1018E00024BD000000487047C4EB00204FF0013CCD
:1018F00050F8042B51F8043B9A4221D1A2EB0C037F
:10190000934313EACC1317D150F8042B51F8043B3E
:101910009A4215D1A2EB0C03934313EACC130BD1DB
:1019200050F8042B51F8043B9A4209D1A2EB0C0366
:10193000934313EACC13DBD04FF00000704700BF95
:10194000D01A01BAB1FA81F101F0180122FA01F0BE
:10195000CB40C1F12001DBB2C0B2C01A2CFA01F3B6
:10196000D11A914311EAC311E6D170475FEA400CE6
:1019700008BF91F0000F4FEA8C234FEAC12243EADF
:1019800051514FEA1C5018BF00F5F0404FEA3000AB
:1019900018BF41F000415FEA6C5C00F02980BCF1A7
:1019A000FF3F08BF40F080407047130C06BF120491
:1019B0004FF0100C4FF0000C130E04BF12020CF18C
:1019C000080C130F04BF12010CF1040C930F04BF99
:1019D00092000CF1020CD30F04BF52000CF1010C69
:1019E00011464FF00002A0F11F00A0EB0C00704761
:1019F00011F0004F08BF704731F000413FF4D5AF00
:101A00000B0C06BF09044FF0100C4FF0000C0B0E2E
:101A100004BF09020CF1080C0B0F04BF09010CF103
:101A2000040C8B0F04BF89000CF1020CCB0F04BF18
:101A300049000CF1010CCCF12003A0EB0C0022FAC0
:101A400003F302FA0CF241EA030100F101007047CE
:101A500020F07F4C80EA030023F07F47ACEB0703C4
:101A600003F57C5300F0004003F1FF032DE98049AA
:101A70004FEA154B09B44FEA144325EA0B4E24EA0A
:101A800003480FF2042606EB132749083E785FEA65
:101A9000320203FB0667C7F5000707FB06F64FEAAD
:101AA00054374FEAD64606F1020607FB066CCCF126
:101AB000005C4FEA1C472CEA074C07FB06F40CFBC2
:101AC00006F504EB15464FEA961634BF00204FF09A
:101AD00000404FEAD13706FB07FC4FEA1C4C0CFBD9
:101AE0000BF7D21B03FB0CF761EB07010CFB0EF7A6
:101AF000B0EB074072EB17420CFB08F734BFA2EBC8
:101B00000742B2EB074261EB17414FEA0C444FEA40
:101B1000910706FB07FC4FEA1C4C0CFB0BF7B0EBE4
:101B2000C74072EB573203FB0CF734BFA2EBC7423E
:101B3000B2EBC74261EB57310CFB0EF7B0EBC700BD
:101B400072EB57720CFB08F734BFA2EBC702B2EB83
:101B5000C70261EB5771039F4FEA816141EA92111D
:101B600004EBCC044FEAD1374FEA826206FB07FC54
:101B700042EA90124FEA80604FEA1C4C0CFB0BF7D4
:101B8000D21B03FB0CF761EB07010CFB0EF7B0EB6C
:101B9000074072EB17420CFB08F734BFA2EB074279
:101BA000B2EB074261EB17414FEA8C554FEA9107C0
:101BB00004EB9C2406FB07FC4FEA1C4C0CFB0BF7C8
:101BC000B0EBC74072EB573203FB0CF734BFA2EB0C
:101BD000C742B2EBC74261EB57310CFB0EF7B0EBDB
:101BE000C70072EB57720CFB08F734BFA2EBC702B9
:101BF000B2EBC70261EB577115EB4C254FEA8161DF
:101C000041EA92114FEA82624FEAD13742EA9012DA
:101C100006FB07FC44F100044FEA80604FEA1C4CCD
:101C20000CFB0BF7D21B03FB0CF761EB07010CFB62
:101C30000EF7B0EB074072EB17420CFB08F734BF0E
:101C4000A2EB0742B2EB074261EB174115EB1C1503
:101C50004FEA813141EA92414FEA823242EA9042B0
:101C60004FEA80304FEA0C7644F1000448EA03431F
:101C70004EEA0B484FF0000EB2EB080C71EB030775
:101C800024BF624639464EEB0E0E4FF0000B001893
:101C9000524149414BEB0B0BB2EB080C71EB0307C4
:101CA0007BF1000B24BF624639464EEB0E0E4FF01F
:101CB000000B0018524149414BEB0B0BB2EB080CE7
:101CC00071EB03077BF1000B24BF624639464EEBF4
:101CD0000E0E51EA020718BF46F0010616EB0E760B
:101CE00055F1000254F1000103D5BDE88901BDE8BA
:101CF0000088BDE88901BDE80048B619524141EBB2
:101D00000101A3F10103704780807F7E7D7C7B7A97
:101D10007978777676757473727171706F6E6E6D97
:101D20006C6C6B6A6A69686867666665646463633D
:101D300062616160605F5F5E5E5D5D5C5C5B5B5AC3
:101D40005A59595858575756565555555454535330
:101D500052525251515050504F4F4F4E4E4D4D4D8B
:101D60004C4C4C4B4B4B4A4A4A49494948484847D6
:101D70004747474646464545454444444443434314
:101D80004342424242414141002B9C4630D47700BD
:101D90002BD01CB54FEA370703B44FF010004FF0BB
:101DA0001001BAF1000F06D0BCF1000FDCBF40F00B
:101DB000080040F008014FF000000FBCBDE81040E3
:101DC0000BF1010BBBF1010F08BF5FEA170722BF40
:101DD00012F1010211F101014FF0004143F1000342
:101DE00000F0004043EA00007047F9D35708D0E7FD
:101DF00046EA064613F1400F4FEA16461FDD13F17F
:101E0000200FDFBF16430A46002120335B42BED0BD
:101E1000C3F1200746EA064602FA07F74FEA1646DC
:101E200046EA0706C3F1200722FA03F201FA07F790
:101E300021FA03F14FF0000342EA0702A7E746EA5E
:101E4000020646EA06464FEA164646EA0106BCBFC7
:101E500046EA0646360C4FF000034FF000024FF002
:101E6000000194E72DE9804C9A46934670B491E8BE
:101E7000380007C831EA400C48BF34EA430C03D5A8
:101E8000FFF7E6FDFFF780FFF0BCBDE8008C2DE911
:101E9000804C9A46934670B491E8380007C810F019
:101EA000804F08BF13F0804F03D100F005F8FFF713
:101EB0006BFFF0BCBDE8008C20F07F4780EA030098
:101EC00023F07F4C07EB0C03A3F57C5300F000409C
:101ED000A3F1FE0392F0000F00F0B38095F0000F25
:101EE00000F077802DE901494FEA11404FEA14468E
:101EF00021EA004800FB06FC24EA064708FB06F638
:101F000007FB08F800FB07F718EB06484CEB164CEC
:101F10004FEA124B18EB07484FEA15464CEB1740B7
:101F200022EA0B4E0BFB06FC25EA06470EFB06F6E3
:101F300007FB0EFE0BFB07F71EEB064E4CEB164C99
:101F40004FF000061EEB074E4CEB174B18EB0B083F
:101F500040F1000018EB0E0B58EB000840F10000B8
:101F60008F1A4FF000013CBFC943661B14BFB5EB8D
:101F7000040C00213CBFC943F61B4FEA17444EEA4C
:101F80008E0E27EA04454FEA1C4704FB07622CEA41
:101F9000074C05FB07F70CFB05F604FB0CFC16EBE6
:101FA000074642EB174216EB0C4642EB1C421BEB7A
:101FB000060658EB0202414146EA9E0601D5BDE8FD
:101FC0000189B619524141EB0101A3F10103BDE8BA
:101FD00001894FEA14454FEA114724EA054621EAF0
:101FE000074C05FB07F406FB07F70CFB06F105FBA6
:101FF0000CFC11EB074144EB17444FEA124711EB7D
:102000000C4144EB1C4422EA074C05FB07F206FB9B
:1020100007F70CFB06F605FB0CFC16EB074642EB3C
:10202000174216EB0C4642EB1C456A1854F10001AE
:1020300048BF7047B619524141EB0101A3F10103BA
:10204000704795F0000F37D04FEA11424FEA14471E
:1020500021EA024624EA074C02FB07F106FB07F7D8
:102060000CFB06F402FB0CFC14EB074441EB17419C
:102070004FEA154714EB0C4441EB1C4125EA074C91
:1020800002FB07F506FB07F70CFB06F602FB0CFC50
:1020900016EB074645EB174516EB0C4645EB1C4285
:1020A000121951F1000148BF7047B619524141EB76
:1020B0000101A3F1010370474FEA14454FEA1147AC
:1020C00024EA054621EA074C05FB07F106FB07F762
:1020D0000CFB06F24FF0000605FB0CFC12EB07426E
:1020E00041EB174112EB0C4251EB1C4148BF7047CA
:1020F000921841EB0101A3F10103704710B50446AA
:1021000001229102064802F068FD204609F07EFC9B
:1021100000224FF48061024802F05FFD10BD000014
:102120000008024000BFFEE770B586B004460D46C9
:10213000002004900590D4F802000490E088ADF8E7
:1021400014002078112805D02078122802D0012010
:1021500029490870607800F0010010B1022000F0F9
:1021600015FC607800F00200022802D1032000F084
:102170000DFC607800F00400042801D100F006FC9A
:102180009DF815009DF81410CDE900109DF813304E
:102190009DF812209DF811109DF8100006F018FB14
:1021A00000BF16A0FEF7D6F900BF00BF6278217805
:1021B0001FA0FEF7CFF900BF00BF9DF815109DF8D6
:1021C00014009DF81320CDE9002002919DF81230F3
:1021D0009DF811209DF8100000F5FA611BA0FEF794
:1021E000B9F900BF207820B100BF24A0FEF7B2F9F2
:1021F00000BF06B070BD00009C09002023232323EC
:102200002323232323232323232323232323204A7A
:102210006F696E2064657669636520232323232319
:102220002323232323232323232323230D0A0000F3
:1022300066756E6320666C6167202020203A202539
:1022400030327820253032780D0A000073797374AB
:10225000656D2074696D6520203A20253032642D2B
:10226000253032642D2530326420253032643A2501
:102270003032643A253032640D0A000064657669B4
:102280006365206C696E6B206572726F722E0D0A29
:10229000000000002DE9F041054688460026002494
:1022A00008F0C4FDD0F84071A8F10200142190FBA1
:1022B000F1F01E2804DD00BF3DA0FEF74BF900BF82
:1022C000287878706978B970A8F10200182190FB1D
:1022D000F1F0F87000241CE004EB4400022101EB53
:1022E000C000295CC4EBC40000EB4002381D8154DF
:1022F00004EB4403EA1C02EBC301C4EBC40202EB8F
:1023000042033A1D1A44501C1422FEF760FB601C65
:10231000C4B2F878A042DFDC07F0ECFC00BF2CA0D0
:10232000FEF718F900BF00BF6A78297835A0FEF7DC
:1023300011F900BF002432E000BF214638A0FEF7AB
:1023400009F900BF002621E026B900BF38A0FEF73A
:1023500001F90DE0012E04D100BF37A0FEF7FAF815
:1023600006E0152E04D100BF35A0FEF7F3F800BF3C
:1023700000BF04EB4400022202EBC0003044295CA1
:1023800031A0FEF7E7F800BF701CC6B2182EDBDBE9
:1023900000BF1BA0FEF7DEF800BF601CC4B2A8F1AE
:1023A0000200182190FBF1F0A042C5DCBDE8F081ED
:1023B000757365722062617365206973206F75742F
:1023C000206F662072616E67652E0D0A00000000A6
:1023D00023232323232323232323232323232323CD
:1023E00020557064617461207573657262617365F4
:1023F00020232323232323232323232323232323B0
:102400000D0A000075736572206261736520766540
:10241000723A202530327820253032780D0A0000BB
:102420006C697374205B25645D202020203A2000B5
:10243000286C76290000000028696429000000004B
:1024400028726573290000002530327820000000D2
:102450002DE9F0410546884600240027002606F0B5
:10246000BFF8D0F89C60287870706978B170A8F1D6
:102470001100C11700EB1171C1F30711F17000BF1A
:1024800019E0301D00EB0411A81C00EB04100268D9
:102490000A6080888880301D00EB041105F1080077
:1024A00000EB0410026841F8062F42684A60008978
:1024B0000881601CC4B2F078A042E2DC07F02EFC78
:1024C00000BF21A0FEF746F800BF00BF6A78297858
:1024D0002AA0FEF73FF800BF002430E000BF2146ED
:1024E0002DA0FEF737F800BF00271FE027B900BF77
:1024F0002EA0FEF72FF80DE0022F04D100BF2DA073
:10250000FEF728F806E0062F04D100BF2BA0FEF747
:1025100021F800BF00BF022000EB04103844295C02
:1025200029A0FEF717F800BF781CC7B2102FDDDB1B
:1025300000BF11A0FEF70EF800BF601CC4B2F07817
:10254000A042CBDCBDE8F0812323232323232323D4
:1025500023232323232323232055706461746120C4
:10256000706F756C626173652023232323232323FB
:1025700023232323232323230D0A0000706F756C6C
:102580002062617365207665723A202530327820AA
:10259000253032780D0A00006C697374205B253099
:1025A00032645D202020203A2000000028636C6106
:1025B000737329002867726F75702900286E616D2A
:1025C000655F67626B2900002530327820000000CB
:1025D0002DE9F04104460F46A078617840EA0126D3
:1025E000E0780006217940EA0140617940EA012063
:1025F000A17940EA0105C5F3090000EB9520B0423E
:1026000001D1012000E0002060B1217AE37941EAA4
:1026100003222078294608F09FFB01210248006828
:1026200080F8ED11BDE8F0814C04002070B504463F
:102630000D46207818B9002008F05AFC1CE02078DC
:10264000012803D1032008F053FC15E0207802286C
:1026500003D1012008F04CFC0EE02078032803D1C0
:10266000022008F045FC07E02078042804D108F097
:102670003FFC601C08F060FC00BF0DA0FDF76AFF86
:1026800000BF2078012808D02078022805D02078C3
:10269000032802D02078042804D100BF11A0FDF740
:1026A00059FF04E000BF14A0FDF754FF00BF70BD48
:1026B00023232323232323232323232323232323EA
:1026C00023232055736572206C6F67696E20232366
:1026D00023232323232323232323232323232323CA
:1026E0000D0A00004C6F67696E2073756363657334
:1026F000732E0D0A000000004C6F67696E20666142
:10270000696C2E0D0A00000070B504460E46607814
:10271000217840EA0125032D02D1032000F036F98B
:1027200070BD000070B504460E460025207828B123
:102730002078012802D02078022811D107F098F8DB
:10274000054695F84600002807DD95F84610A8686C
:102750000844A860002085F8460007F0F3FA00E07E
:1027600000BF00BF09A0FDF7F5FE00BF207810B143
:102770002078012804D100BF13A0FDF7EBFE04E090
:1027800000BF1AA0FDF7E6FE00BF70BD2323232380
:102790002323232323232323232323232050726F44
:1027A00064756374206D6573736167652075706C03
:1027B0006F61642023232323232323232323232321
:1027C0002323230D0A00000055706C6F6164207094
:1027D000726F64756374206D6573736167652073D0
:1027E0007563636573732E0D0A00000055706C6F7E
:1027F00061642070726F64756374206D65737361BA
:102800006765206661696C2E0D0A00002DE9F041B4
:10281000064688460024002505F0E2FED0F8A070A8
:1028200000BF2DA0FDF796FE00BFA8F10F00C11755
:1028300000EB1171C1F30711F97000BF44E000BF54
:10284000214634A0FDF786FE00BF00251DE025B916
:1028500000BF34A0FDF77EFE0DE0022D04D100BFC5
:1028600032A0FDF777FE06E0062D04D100BF31A0AF
:10287000FDF770FE00BF00BF05EB0410315C30A017
:10288000FDF768FE00BF681CC5B2102DDFDB00BF7E
:102890001FA0FDF75FFE00BF381D00EB041006EB24
:1028A00004110A68026089888180381D00EB0411D8
:1028B000B01D00EB0410026841F8062F42684A6020
:1028C00000890881601CC4B2F878A042B7DC0320FC
:1028D00001F044F8BDE8F08123232323232323239D
:1028E0002323232323232323205570646174612031
:1028F0006E65772061646420706F756C62617365CA
:10290000202323232323232323232323232323239A
:102910000D0A00006C697374205B25645D20202023
:10292000203A200028636C61737329002867726F56
:1029300075702900286E616D655F67626B29000004
:10294000253032782000000070472DE9F041044620
:102950000F4608F0C7F905462889C0F30900A968A1
:1029600000EB912008B1012000E000200646A87885
:102970002178884208D1A078617840EA0120B042ED
:1029800002D1E01C08F0B2F9BDE8F08170B505464F
:1029900005F04AFD0646012E01D0022E1CD10F483B
:1029A0000078012818D10E4800780A2814DA00248B
:1029B00006E00C48005DA84200D170BD601CC4B2A6
:1029C000074800788442F4DB054801780078401C11
:1029D000034A10700348455400BFEEE79C090020ED
:1029E0003A090020588000202DE9F04700240025F6
:1029F000A146002706F038FF461C464805F0FCFCBF
:102A00008046B8F1000F7CDD00BF43A0FDF7A2FDBA
:102A100000BF08F0FF013F4805F088FE3D4C4546E9
:102A2000207888280AD16078FB2807D1681E205CAE
:102A3000FC2803D1A81E205CFC2806D000BF39A0CA
:102A4000FDF788FD00BFBDE8F087A81F81B24FF6F3
:102A5000FF72A01C00F032FB8146E81E215C281F9B
:102A6000205C41EA002048450CD000BF281F215CB3
:102A7000E81E205C41EA0022494632A0FDF76AFDCB
:102A800000BFE0E730786179884213D17078A1798E
:102A900088420FD1B078E17988420BD1F078217A61
:102AA000884207D13079617A884203D17079A17A5E
:102AB000884200D0C7E720792D490978884205D09F
:102AC00000BF2CA0FDF746FD00BFBCE700271BE0C0
:102AD0002D4810F837002179884213D1A5F10F0055
:102AE00081B2294800EBC700426804F10B0090470F
:102AF0000020264908702649086048601C49087073
:102B000004E004E0781CC7B20A2FE1DB00BF00BF7D
:102B100099E70000947B00204E65742072783A0D8E
:102B20000A0000004672616D652068656164206F6F
:102B300072206661696C2069732077726F6E6721FD
:102B40000D0A0000435243206572726F723A20638F
:102B5000616C63206372633A20253034782C2072D4
:102B6000656376206372633A20253034780D0A005D
:102B70003B090020436D64206973206469666665C3
:102B800072656E74210D0A004C090020480900206E
:102B90004009002010B500240A48007800280EDD06
:102BA0000948047807480078421E0749491C481E16
:102BB000FDF70DFF03480078401E024908702046CB
:102BC00010BD00003A09002058800020012104486F
:102BD00002780078401C024B1870024881547047FC
:102BE0003A090020588000202DE9FC5F0546DF4CA3
:102BF00000270020019040F2C4412046FDF734FF39
:102C00000020DB490880DB480278084601880088FC
:102C1000401CD74B18806254D64841781846028829
:102C20000088401C1880A1540022184601880088A2
:102C3000401C188062542322184601880088401CDA
:102C400018806254184601880088401C1A4610807B
:102C5000655406F009FE401C0090C5480088211804
:102C6000009802680A6080888880C1480088801DBA
:102C7000BF490880012D54D105F07EFD824606F043
:102C8000F3FDC61D7178BA4802880088401CB84B15
:102C90001880A1543178184602880088401C18809A
:102CA000A15408F0C3F8D0F8408198F80110B0485A
:102CB00002880088401CAE4B1880A15498F802107E
:102CC000184602880088401C1880A15405F088FC32
:102CD000D0F89C9099F80110A54802880088401C03
:102CE000A34B1880A15499F8021018460288008856
:102CF000401C1880A15419460988601831221421FB
:102D0000FDF7AAFE9A48008814309949088009887E
:102D1000601801F02FFA9648008814309449088012
:102D2000F1E0022D13D108F081F8D0F840617278FB
:102D30008F4801880088401C8D4B18806254B17800
:102D4000184602880088401C1880A154DBE0032D3F
:102D500013D105F045FCD0F89C6072788448018856
:102D60000088401C824B18806254B1781846028853
:102D70000088401C1880A154C5E0042D0BD106F03A
:102D800073FDC61D71787A4802880088401C784B14
:102D90001880A154B7E0052D10D108F047F800F1D4
:102DA0003F0673490988601814223146FDF70FFE6B
:102DB0006F48008814306E490880A4E0062D37D192
:102DC0004FF0000805F022F98146B9F842A042F21E
:102DD000B820A0EB0A01B9F84600081A86B205F03F
:102DE000E3FB83469BF80000012801D1232000E08B
:102DF00000208046012E04DCB8F1000F01D14FF015
:102E000024085B4801880088401C594A108004F857
:102E10000180310A104602880088401C544B1880FB
:102E2000A154184602880088401C1880A6546AE005
:102E3000072D0ED14E490988601806F0ABFD0190B0
:102E40004B4801883A22019812FB0010484908803B
:102E500059E0082D0CD105F0C3FB06462120815D09
:102E6000434802880088401C414B1880A1544AE026
:102E7000092D10D107F0DAFF00F13F063C4909881F
:102E8000601814223146FDF7A2FD3948008814303D
:102E90003749088037E00A2D35D107F023FF064671
:102EA0003089C0F30900B16800EB912008B101201E
:102EB00000E000208046B2782D4801880088401C40
:102EC0002B4B188062544FEA28221846018800884C
:102ED000401C18806254184601880088401C1880E5
:102EE00004F80180B088C0F30122184601880088E8
:102EF000401C188062543279184601880088401CB2
:102F00001880625400BF1A480088801E000AA07012
:102F100017480078801EE07015480088801E81B236
:102F20004FF6FF72A01C00F0C9F80746390A104896
:102F300002880088401C0E4B1880A1541846018856
:102F40000088401C188067540B4801781846028896
:102F50000088401C1880A154074842781846018810
:102F60000088401C18806254BDE8FC9FD076002089
:102F700038090020CCF80008CEF8000810B501F0A0
:102F800033FE1549086000F04DF8FFF72DFD13489A
:102F9000406800B3114800680F490968081A0F49D2
:102FA0004968884217D900200C49086048600C48DD
:102FB0000078032805DA0A480078401C08490870A0
:102FC00009E00020064908700649087000BF06A005
:102FD000FDF7C0FA00BF10BD3C09002040090020E9
:102FE000480900203B090020776169742061636B08
:102FF0002074696D656F7574210D0A0070B5044603
:103000000D462946204605F063FA04480068044945
:10301000086042F21070486070BD00003C0900205A
:103020004009002010B51548406800B110BD01F0FE
:10303000DDF800B9FAE71248007818B9FFF7AAFDE1
:103040000F4908700E480078A8B10D480078FFF7C6
:10305000CBFD0C4801880C48FFF7D0FF08480078EA
:10306000052803D006480078062804D107480078D0
:10307000C01C0649087000BFD8E7000040090020C6
:103080003B09002038090020D076002048090020A4
:1030900030B5034600240AE013F8010BD5B26840AE
:1030A000054D35F8100080EA2222601C84B28C4263
:1030B000F2DB104630BD0000D6F800082DE9F041E3
:1030C000C0B006460C461746B04615E0B4F5807F02
:1030D00002DD4FF4807000E0204605462A46414656
:1030E0006846FDF774FC3A4629466846FFF7D0FF6C
:1030F0000746601B84B2A844002CE7D1A04638469E
:1031000040B0BDE8F081000038B579480078062865
:1031100001D1052038BD032008F00BFB222805D083
:1031200000234422022103200AF0AEFC012508F00E
:10313000FFFEC4B26E480078052872D2DFE800F0C6
:10314000031232769D0000206A490870487088702A
:10315000C8700AF0BDF80020674908600120644982
:103160000870C2E0022C19D164480068007C6149F3
:10317000087062480068407C487060480068807C45
:1031800088705E480068C07CC8700AF0A5F900200D
:103190005949086002205649087002E008F02EF9EB
:1031A0000546A2E0052C34D108F0F6F8002827D017
:1031B0005048C07800904F4883784278017850A0FA
:1031C000FDF7C8F95348C078009052488378427898
:1031D000017851A0FDF7BEF95448C07800905348DB
:1031E00083784278017852A0FDF7B4F95548006819
:1031F000804709F0EFFE03203D490870022514E0E6
:1032000009F0E8FE504800688047002038490870FF
:103210000BE0062C06D109F0DDFE012034490870D0
:1032200003E05EE008F0EAF805465EE00425474862
:103230000068401C00B33048006844490968B0EB9E
:10324000510F19D900242B480078414908702948AA
:10325000407848702748807888702648C078C870C1
:103260003C480068401C3B4908600AF035F909F009
:10327000B1FE04201E49087037E00425052C24D136
:10328000002035490870324800781A490978884288
:1032900011D12F4840781749497888420BD12C48E2
:1032A000807814498978884205D12948C078114925
:1032B000C978884203D0022528480068804709F071
:1032C00089FE03200A4908700AE0062C05D109F09E
:1032D00081FE01200649087002E008F08FF80546DB
:1032E00003E000200249087000BF00BF284611E734
:1032F000600E0020440E0020680E00207C0E00208E
:1033000069703A25642E25642E25642E25640D0AE5
:10331000000000004C0E0020736E3A25642E2564D8
:103320002E25642E25640D0A00000000480E0020A2
:1033300067773A25642E25642E25642E25640D0AB0
:1033400000000000800E0020880E0020640E002087
:10335000400E0020780E0020610E0020840E002018
:10336000084801680068401C064A1060B1F57A7F81
:1033700007D900201146086003480068401C024934
:1033800008607047700E0020680E002010B50248DB
:1033900001F016F910BD00002813002010B50248F6
:1033A00001F00EF910BD0000E813002010B502482E
:1033B00001F006F910BD0000C812002010B5024847
:1033C00001F0FEF810BD00008813002010B502487F
:1033D00001F0F6F810BD0000A814002010B5024856
:1033E00001F0EEF810BD00004814002001460878F6
:1033F00010381823B0FBF3F20848805CC865032A34
:1034000005D908686FF30900001D886503E00868A6
:103410006FF309008865886D70470000ACF80008FC
:10342000014600208A6A8B69CBB932B1012A0DD0DE
:10343000022A03D0032A10D10EE000BFCB6A03F0AA
:103440008073B3F1807F00D1012007E0CB6AB3F134
:10345000C07F00D1012001E000E000BF34E08B69B3
:10346000B3F5005F1AD132B1012A07D0022A03D086
:10347000032A11D10AE000BF01200EE0CB6A03F05D
:103480008073B3F1807F00D1012006E0CB6AB3F1F5
:10349000C07F00D1012000E000BF15E032B1012A59
:1034A00005D0022A04D0032A0CD103E000BF00BFDC
:1034B000012008E0CB6A03F08073B3F1807F00D174
:1034C000012000E000BF00BF704730B504682468E9
:1034D00024F4802405682C60046863608468402CB0
:1034E00004D10468A2600468E16003E00468A1609C
:1034F0000468E26030BD704710B5024807F03EFB3B
:1035000010BD0000481200202DE9FE4304460F467E
:103510000026B04600252078072864D2DFE800F0B6
:1035200004144063634862006078012803D1A078E6
:1035300003F082FE07E06078022803D1002000F04B
:10354000FBF900E000BF4FE06078012827D128A0F8
:10355000FDF700F807F06AFC06463078012802D033
:103560003078022804D1711C24A0FCF7F3FF02E09C
:1035700024A0FCF7EFFF24A0FCF7ECFF07F056FCBB
:1035800000F1150898F80000042805D108F10101A0
:103590001AA0FCF7DFFF02E01AA0FCF7DBFF23E034
:1035A0006078012803D1A178E01C04F091FF1BE0B2
:1035B00006F05AF9451C062F07DDD4F801002860F3
:1035C000B4F80500A88006F083FB68792979EA78C9
:1035D000CDE900210290AB786A7829780DA0FCF73C
:1035E000B9FF01E000BF00BF00BFBDE8FE830000DF
:1035F0004D65726368616E743A20000025730D0A90
:10360000000000000D0A0000437573746F6D657251
:103610003A200000646576696365206164647265C0
:1036200073733A20253032782025303278202530C7
:1036300032782025303278202530327820253032FB
:10364000780D0A0010B50D490D4807F0ABF9044696
:10365000002C12DD09480078FB280AD1601E0749BA
:10366000085CFC2805D1A01E81B20448401CFFF76D
:103670004BFF64210148FDF7F7F910BD5876002093
:103680004812002070B50B48006890F898014FF47C
:10369000A04101EBC01400F0BBFA054605EB450064
:1036A000054A126802EB80010C22204603F02EFE30
:1036B00070BD0000940E0020A00E002010B586B052
:1036C000002003900490059000F07CFD04460F4814
:1036D000006890F8980110B1022006B010BD00F00B
:1036E0009DFE08B90320F8E7E078A178CDE9001045
:1036F0006378227806A103A8FCF738FF0C2203A9FF
:1037000045F2180003F002FEE7E70000940E0020E7
:1037100047505320256325632C256325636442208D
:10372000000000007CB504F071FC0446B4F842507F
:1037300042F2B820411BB4F84600081A86B20020B5
:10374000009001900A48006890F89801012801D083
:1037500002207CBD33462A4606A16846FCF706FFD8
:103760000822694645F2900003F0D0FDF1E7000021
:10377000940E0020253034642530346400000000AD
:1037800070B506460C460025802120480068FDF7EC
:103790008DF91E480068067000BF19E0201D00EB7F
:1037A00005104078B04211D1201D00EB05111748DB
:1037B00000684278154800684078401C134B1B682D
:1037C000587012480068001D40F82210681CC5B2ED
:1037D000E078A842E2DC0D4A12685178CA1701EB82
:1037E0005272D210094B1B685878C31700EB537301
:1037F000DB10A0EBC3030BB1012300E000231A444C
:10380000024B1B6883F87C2070BD0000900E0020E6
:1038100038B5002504F008FE0446002000900F484B
:10382000006890F8980110B945F2320507E00B489E
:10383000006890F89801012801D145F2A305012CF8
:1038400002D10120009003E0022C01D1022000905F
:1038500001226946284603F0B1FD38BD940E0020D0
:1038600030B589B00025142104A8FDF71FF904F034
:1038700083FF04460E48006890F898014FF4A04179
:1038800001EBC010801D85B22079E178A278CDE9E6
:10389000002102906378227806A104A8FCF766FE56
:1038A000102204A9284603F031FD09B030BD000004
:1038B000940E00203230253032642D253032642DB4
:1038C0002530326420253032643A253032640000DD
:1038D00010B503F003FC10BD2DE9F04106460F467C
:1038E000002520220A213846FDF7B6F801E0681CC1
:1038F000C5B2705DFF2801D00A2DF8DB0024A04678
:1039000015E0C5F10A0101EBD1725210A2420CDCA4
:1039100005F10A0000EBD0725210A24205DD4046CC
:10392000411C01F0FF08305C3855601CC4B20A2C01
:10393000E7DBBDE8F081000010B5044606480470DE
:10394000406804EB840200EB4201052245F21000BE
:1039500003F034FD10BD0000980E00202DE9F04F5B
:1039600093B0044604F060FD129004F005FF11903E
:1039700004F036FE814607F059FA054607F056FA7C
:1039800000F1150600F01EFC109004F03FFB074606
:103990004FF0000B00200F90B7F842A042F2B82081
:1039A000A0EB0A01B7F84600081A80B20E9000207A
:1039B0000C900D9009900A900B90142104A8FDF72B
:1039C00075F824B1012C2DD0022C72D16CE00120AD
:1039D00003F032FCFFF71CFFD9F80010881D09A97D
:1039E000FFF77AFF0A2209A945F29E0003F08EFC38
:1039F0002878022802D02878012806D114222F49DD
:103A000045F2940003F082FC09E03078042806D1E6
:103A1000142206F1150145F2940003F077FCFFF73C
:103A200081FE47E0002003F007FCFFF7F1FE244988
:103A30000878FFF781FF05F017FF50F8011F0C9180
:103A40008088ADF834009DF835009DF834109DF85D
:103A500033209DF83230CDE90032CDE902109DF8D7
:103A600031309DF8302017A104A8FCF77FFD142207
:103A700004A945F21E0003F049FC142104A8FDF737
:103A800015F805F0F1FE00F1070898F8003098F8F5
:103A9000012015A104A8FCF769FD142204A945F230
:103AA000280003F033FC05E0062003F0C5FB01E02D
:103AB000FFE700BF00BF13B0BDE8F08FA40E0020E9
:103AC000980E0020253032782D253032782D253083
:103AD00032782D253032782D253032782D25303230
:103AE0007820202000000000736F6674202D2025B0
:103AF0003032782C2068617264202D202530327895
:103B00000000000070B586B00546002003900490C8
:103B100005901DA2D2E900109268CDE90102009142
:103B200004F05EFD00F12006002428E0194800683A
:103B300090F87D0004EBC000B178884212DA154994
:103B4000096891F87D1004EBC102311D51F8221073
:103B5000881D03A9FFF7C0FE0A2203A9284603F027
:103B6000D5FB08E003A96846FFF7B6FE0A2203A9C1
:103B7000284603F0CBFB681D85B2601CC4B2082C3C
:103B8000D4DB06B070BD000020202020CEDE202037
:103B900020200000900E002010B54FF4807000F03F
:103BA000EFFE10BD0C4901EBE001097800F00703BE
:103BB00001229A40114001B17047074901EBE00131
:103BC000097800F0070301229A401143024A02EBF0
:103BD000E002117000BFEFE7BC7600200B4901EB5B
:103BE000E001097800F0070301229A40114061B119
:103BF000064901EBE001097800F0070301229A4031
:103C00009143024A02EBE00211707047BC7600203B
:103C1000002111E000220BE00948405C01239340A1
:103C2000184018B102EBC100C0B27047501CC2B2BC
:103C3000082AF1DB481CC1B21429EBDB0020F4E7B1
:103C4000BC760020704700B50120FFF7ABFF0220D3
:103C5000FFF7A8FF0620FFF7A5FF0720FFF7A2FF49
:103C600000BD000000200149087A7047040E0020C2
:103C700070B5044600250A210F48006807F026FFAA
:103C8000B8B90E48008800280FDD0C4802880C499E
:103C90002046FCF79CFE094805884FF480510848EF
:103CA000FCF7E2FE0020054908800348006807F0A1
:103CB000B1FF284670BD000014000020120E002045
:103CC00078A0002010B501222021054800F085FFD2
:103CD00000F0FCF8034800F021F907F063FD10BD87
:103CE000000802406290002010B56248007810BBC6
:103CF00061480068401C10B15F48006840B941F25B
:103D000088305D490860032007F0CCFB07F04AFDCE
:103D1000FFF7FAF902280DD1584B594A59495A4828
:103D200000F0EAF800F05AF9012052490870801EAC
:103D30005149086092E04FF4385003F08FF900F0D9
:103D4000010068B95148007A012809D100204F4983
:103D500008724F48006808F047F8002007F0A2FBFF
:103D6000002007F0E6FC002848D0132804D01728CC
:103D700009D01C2851D13DE04448828801460020EA
:103D800007F0AAFB4AE0002007F0A0FC00F00100C9
:103D900078B10121002009F06CFE00BF3DA0FCF7C6
:103DA000D9FB00BF0120394908723948006808F082
:103DB0001BF83648007A01281BD13D480088C0B95D
:103DC0004FF0FF313B48006807F080FE002007F00D
:103DD00086FC3749088008460088002805DD08462B
:103DE00002883549002008F089FF3248006807F052
:103DF00011FF13E0002007F055FB0FE02348C288B5
:103E000020230121002009F03FFE00201F490872F5
:103E10001F48006807F0E8FF00E000BF00BF1B4834
:103E2000007A01281AD1811E2448006807F04EFE4E
:103E30002348008800280DDD214802882149002000
:103E400009F0D8F81E4801881E48FCF70DFE002036
:103E50001B4908801948006807F0DCFE1A48006812
:103E600018B119480068401C18B94FF47A70164907
:103E7000086010BD0E0E0020140E0020500E002011
:103E80004C0E0020480E0020440E0020040E00209E
:103E90002800002054637020736572766572206973
:103EA0007320636F6E6E6563746564210D0A000094
:103EB000120E00201400002078A000201000002026
:103EC000100E002078900020180E002010B500225F
:103ED0004FF48071074800F080FE022007F096FD45
:103EE00001221102034800F078FE4FF4C86007F089
:103EF0008DFD10BD0008024030B5074C0568C4F8C0
:103F000006500D68C4F80E501568C4F80A501D68B4
:103F1000C4F8125030BD00006290002010B588B087
:103F20000446002003900490224800680590214830
:103F3000001F006806901F48083800680790059821
:103F4000000E8DF80C000598000C8DF80D000598FA
:103F5000000A8DF80E000598C0B28DF80F00069883
:103F6000000A8DF810000698C0B28DF811009DF877
:103F70000C0000EBD0714910A0EB410129B19DF874
:103F80000C00401EC0B28DF80C0003982060BDF8F4
:103F90001000A08000BF60792179E278CDE900218E
:103FA0000290A3786278217803A0FCF7D3FA00BFCF
:103FB00008B010BD187AFF1F4D41433D25303278BF
:103FC0003A253032783A253032783A253032783A0C
:103FD000253032783A253032780D0A0000B587B0A6
:103FE0002DA003C8CDE904012BA103C9CDE902012D
:103FF0002B4809F023FD2A480A3009F031FD2848F2
:104000000E3009F0F7FC2648801D09F020FD02A9BA
:1040100004A809F09BFD4FF4FA6009F002FD0320AB
:1040200009F0F7FC00BF1FA0FCF794FA00BF06A838
:1040300007F03AFB00BF9DF81B0000909DF81A3076
:104040009DF819209DF818101AA0FCF783FA00BFFC
:1040500006A807F032FB00BF9DF81B0000909DF8FA
:104060001A309DF819209DF8181017A0FCF772FA65
:1040700000BF06A807F0F4FA00BF9DF81B000090EF
:104080009DF81A309DF819209DF8181013A0FCF720
:1040900061FA00BF07B000BD020202020202020282
:1040A000629000204448435020696E666F3A200DAC
:1040B0000A0000006970203A2025642E25642E2510
:1040C000642E25640D0A0000736E203A2025642EAC
:1040D00025642E25642E25640D0A00006777203A9A
:1040E0002025642E25642E25642E25640D0A0000EB
:1040F00070B505460C460A210848006807F0E6FC42
:1041000050B9224629460648FCF761FC0548048060
:104110000248006807F07EFD70BD0000100000201E
:1041200078900020100E00200C480068401C38B128
:104130000A48006820B109480068401E0749086025
:104140000748006840B106480068401C20B1044898
:104150000068401E0249086070470000140E0020ED
:10416000180E002010B54021014800F02DFD10BDB3
:104170000004024001460020114A927A4E2A03D0E0
:104180000F4A927A532A19D10D4A527D452A03D0FB
:104190000B4A527D572A11D1094A0B3213680B6022
:1041A00053684B6012890A81054A1368C1F80A30C6
:1041B0005368C1F80E3012894A820120704700000E
:1041C00010090020014800687047000028090020FD
:1041D00010B501225102034800F0FFFC024806F02E
:1041E000CDFC10BD00040240C81100200948807AAF
:1041F0004E2803D00748807A532809D10548407DCE
:10420000452803D00348407D572801D1012070473D
:104210000020FCE7100900202DE9FC4132A13448C0
:10422000FCF754FB044633A1A01DFCF74FFB0546E9
:104230000CB9BDE8FC8125B92D48FCF7A9FB2C4938
:104240004518281BC6B2A0212B48FCF70DFCA02165
:104250002A48FCF709FC324621462748FCF74DFC6A
:104260002548FCF795FB87B2142008212C23234A0C
:10427000CDE900103946204800F0E6F81F4890F8D4
:1042800028004E2804D01D4890F82800532828D133
:104290001A4890F85000452804D0184890F850006B
:1042A00057281ED10720FFF799FC154813494A6982
:1042B00002608A694260898B0181104890F8280069
:1042C0000F49887201F10B000C49CA6B02600A6C3D
:1042D0004260B1F844100181084890F85000084944
:1042E000487500BFA5E70000244750474C4C00002C
:1042F000C264002024475000C27400206275002070
:10430000100900202DE9FC412EA13048FCF7DEFA0F
:1043100004462FA1A01DFCF7D9FA05460CB9BDE84B
:10432000FC8125B92948FCF733FB28494518281B8F
:10433000C6B2A0212748FCF797FBA0212648FCF72E
:1043400093FB324621462348FCF7D7FB2148FCF774
:104350001FFB87B2142008212C231F4ACDE900102F
:1043600039461C4800F070F81B4890F83C0018B91A
:10437000194890F83D0010B3174890F88C0018B910
:10438000154890F88D00D0B10620FFF727FC1248A1
:1043900090F83C001149096808700F4890F83D00FA
:1043A0000E49096848700C4890F88C000B49096860
:1043B0008870094890F88D1008480068C17000BFE7
:1043C000ADE700002447504753560000C264002068
:1043D00024475000C2740020627500202809002084
:1043E00010B50C490C4806F0DDFA044604B910BDBE
:1043F0000220FFF7F3FBFFF785FFFFF70DFF4FF4F8
:1044000080510448FCF730FB034806F0B7FB00BFBF
:10441000EDE70000C2640020C811002009480068D0
:10442000007818B907480068407848B10548006826
:10443000807818B903480068C07808B10120704737
:104440000020FCE7280900202DE9F05F06460F4612
:1044500090469946DDF82CB0354634464FF0000AB8
:1044600006E0A11B781E814201DC641C00E002E032
:1044700020784845F5D100BF4FF0000A31E0601BBD
:1044800058450FDABAF1000F05D1621B29464046A4
:10449000FCF79DFA05E0601B421E691C4046FCF7D4
:1044A00096FAD8442546641C28780A2803D1207837
:1044B0000D2800D118E006E0A11B781E814201DC26
:1044C000641C00E008E02078484505D020780D28DD
:1044D00002D060780A28EFD100BF0AF1010000F095
:1044E000FF0A0A988245CADB00BFBDE8F09F70B59D
:1044F0000446A56D00F078FB064694F835000228C6
:1045000008D08020606500BF002084F8340000BF20
:10451000012070BD2068006820F016002168086046
:104520002068406920F0800021684861206C08B94B
:10453000A06C28B12068006820F00800216808609D
:104540002068006820F00100216808600FE000F09A
:104550004BFB801B05280AD92020606500BF002086
:1045600084F8340000BF032084F83500D1E72068C8
:10457000006800F001000028E9D194F85C103F20A9
:104580008840A86000BF002084F8340000BF0120EC
:1045900084F835000020BCE7014691F83500022878
:1045A00003D08020486501207047052081F8350040
:1045B0000868006820F001000A6810600020F3E736
:1045C000F8B50446002000908C4800684FF416515E
:1045D000B0FBF1F7A56D2E6894F85C1008208840B8
:1045E000304098B12068006800F0040070B1206885
:1045F000006820F004002168086094F85C1008202E
:104600008840A860606D40F00100606594F85C101F
:1046100001208840304068B12068406900F0800087
:1046200040B194F85C1001208840A860606D40F0B3
:104630000200606594F85C1004208840304068B146
:104640002068006800F0020040B194F85C1004207B
:104650008840A860606D40F00400606594F85C10CC
:1046600010208840304078B32068006800F00800CF
:1046700050B394F85C1010208840A860206800684F
:1046800000F4802080B12068006800F4002028B980
:10469000206CC8B12046216C884715E0A06C98B109
:1046A0002046A16C88470FE02068006800F4807005
:1046B00028B92068006820F0080021680860206C94
:1046C00010B12046216C884794F85C102020884067
:1046D0003040002865D02068006800F010000028F5
:1046E0005FD094F85C1020208840A86094F83500D2
:1046F000052828D12068006820F01600216808608D
:104700002068406920F0800021684861206C08B969
:10471000A06C28B12068006820F0080021680860BB
:1047200094F85C103F208840A86000BF002084F807
:10473000340000BF012084F83500206D10B1204600
:10474000216D8847F8BD2068006800F4802080B1A2
:104750002068006800F4002028B9606C10B1204681
:10476000616C88471DE0E06BD8B12046E16B88475B
:1047700017E02068006800F4807068B9206800685D
:1047800020F010002168086000BF002084F8340089
:1047900000BF012084F83500E06B10B12046E16BCA
:1047A0008847606D38B3606D00F00100F0B10520FE
:1047B00084F835002068006820F001002168086056
:1047C00000BF0098401C0090B84200D905E0206866
:1047D000006800F001000028F3D100BF00BF0020F6
:1047E00084F8340000BF012084F83500E06C10B17B
:1047F0002046E16C884700BFA4E700003C00002091
:104800002DE9F0410446002500F0EEF9074614B901
:104810000120BDE8F081606A00B100BF00BF002048
:1048200084F8340000BF022084F835002068006856
:1048300020F00100216808600AE000F0D5F9C01BF3
:10484000052805D920206065032084F83500E0E7BD
:104850002068006800F001000028EED1206805689B
:1048600021480540D4E901010843E1680843216972
:10487000084361690843A1690843E1690843216A63
:1048800008430543606A042803D1D4E90B010843B7
:104890000543206805602068456925F00705606AC2
:1048A0000543606A04280DD1A06A0543E06A48B157
:1048B0002046FEF7B5FD28B140206065012084F850
:1048C0003500A6E7206845612046FEF78FFD0646C5
:1048D00094F85C103F208840B060002060650120A3
:1048E00084F83500002094E73F8010F02DE9F04770
:1048F00004460D4616461F464FF00008D4F858905F
:1049000000BF94F83400012802D10220BDE8F087EE
:10491000012084F8340000BF94F83500012825D127
:10492000022084F83500002060653B463246294667
:104930002046FEF7CAFD94F85C103F208840C9F875
:1049400008002068006840F0160021680860206CAC
:1049500028B12068006840F00800216808602068DD
:10496000006840F001002168086006E000BF0020F8
:1049700084F8340000BF4FF002084046C6E7704795
:1049800010B5044604480068204020B10248046085
:104990002046FFF7F4FF10BD143C0140F8B5024675
:1049A0000B460025002400200021E6E0012606FA3F
:1049B00001F51E6806EA0504AC4273D15E68012E5B
:1049C00008D05E68022E05D05E68112E02D05E68A7
:1049D000122E13D190684F000326BE40B0434F0003
:1049E000DE68BE4030439060506801268E40B04380
:1049F0001E79C6F300168E4030435060D0684F00D9
:104A00000326BE40B0434F009E68BE403043D06096
:104A10005E68022E02D05E68122E13D1CF0802F11A
:104A2000200656F827004E07F70E0F26BE40B0436B
:104A30004F07FF0E1E69BE403043CF0802F120062B
:104A400046F8270010684F000326BE40B0431E7989
:104A500006F003064F00BE40304310605E6806F06B
:104A60008056B6F1805FA8D100BF00260096454E63
:104A7000366846F48046434F3E603E46366806F44C
:104A80008046009600BF00BF3F4E8F0856F82700B3
:104A90008E07370F0F26BE40B0433C4EB24202D1C4
:104AA00000262EE068E03A4EB24201D1012628E00D
:104AB000384EB24201D1022623E0374EB24201D134
:104AC00003261EE0354EB24201D1042619E0344ED1
:104AD000B24201D1052614E0324EB24201D106267F
:104AE0000FE0314EB24201D107260AE02F4EB2420A
:104AF00001D1082605E02E4EB24201D1092600E080
:104B00000A268F073F0FBE4030431F4E8F0846F8DE
:104B10002700284E3068A0435E6806F48036B6F55C
:104B2000803F00D12043234E3060361D3068A043C3
:104B30005E6806F40036B6F5003F00D120431D4EF6
:104B4000361D3060361D3068A0435E6806F480165E
:104B5000B6F5801F00D12043164E08363060361D52
:104B60003068A0435E6806F40016B6F5001F00D159
:104B70002043104E0C363060491C1029FFF416AF4C
:104B8000F8BD0000443802400838014000000240EF
:104B90000004024000080240000C024000100240E5
:104BA0000014024000180240001C02400020024095
:104BB00000240240003C0140024613690B400BB147
:104BC000012000E00020704742690A408A4202D179
:104BD0000A04826100E0816170470AB1816101E0ED
:104BE0000B048361704700000148006870470000B3
:104BF000300000200348006803490978084401494F
:104C000008607047300000203800002010B50D48C3
:104C1000006840F400700B4908600846006840F4E2
:104C2000806008600846006840F4807008600320D7
:104C300000F0C8F8002000F007F800F04BF8002062
:104C400010BD0000003C024070B588B0044600254D
:104C50000026002221461E2000F076F81E2000F0DB
:104C600063F800BF002001901648006840F004007F
:104C7000144908600846006800F00400019000BF75
:104C800000BF02A903A800F03BFB00F061FB450058
:104C90000D48B5FBF0F0461E0C480D49086040F287
:104CA000E7310B48C160466000210161816001F07D
:104CB00093FA20B9064801F0E9FA08B070BD012066
:104CC000FBE700004038024040420F00000800406F
:104CD0000815002008B500BF0020009011480068AA
:104CE00040F480400F4908600846006800F48040A6
:104CF000009000BF00BF00BF00200090081F0068A8
:104D000040F08050091F08600846006800F080509D
:104D1000009000BF00BF00220F21901E00F014F889
:104D200008BD00004438024001460846002809DB5F
:104D300000F01F0301229A4043099B0003F1E02386
:104D4000C3F8002100BF70472DE9F05F80460D4693
:104D50001646002706F0F2FA074639462A46334639
:104D600001F00700C0F1070ABAF1040F02D94FF0B1
:104D7000040A01E0C0F1070AD14600F1040ABAF1C1
:104D8000070F02D24FF0000A01E0A0F1030AD44657
:104D90004FF0010A0AFA09FAAAF1010A0AEA020A1C
:104DA0000AFA0CFA4FF0010B0BFA0CFBABF1010BFA
:104DB0000BEA030B4AEA0B042146404606F0C6FA0A
:104DC000BDE8F09F00BF00F00702064B19684FF6E0
:104DD000FF031940044B0B4343EA0221014B1960C6
:104DE00000BF70470CED00E00000FA0538B5002464
:104DF00000BF002000901D48006840F080501B4913
:104E000008600846006800F08050009000BF00BFB6
:104E1000012017490864FFF7E7FE044607E0FFF7A3
:104E2000E3FE001BB0F57A7F01D9032038BD11489D
:104E3000406800F48030B0F5803FF0D101200C498B
:104E40004864FFF7D1FE044607E0FFF7CDFE001BE4
:104E5000B0F57A7F01D90320E8E70648406800F4FE
:104E60000030B0F5003FF0D10020DFE740380240CD
:104E700000000E4200700040F8B5044600250026F0
:104E8000207800F0010048B9207800F002000228E4
:104E900004D0207800F04000402862D10020B149C1
:104EA0008866FFF7A1FE054606E0FFF79DFE401B62
:104EB000022801D90320F8BDAB480068C0F3C060E8
:104EC0000028F2D1207800F0010038B1606881013B
:104ED000207A41EA0070A44984310860207800F00B
:104EE0000200022819D1A04884300068C0F302767D
:104EF00060688101207B41EA006040EA06709A49BF
:104F00008431086098488C30006820F01F00E16907
:104F1000491E084394498C310860207800F0400015
:104F200040280AD160688101207B41EA0061207A33
:104F300041EA00708C498431086001208949886603
:104F4000FFF752FE054606E0FFF74EFE401B022823
:104F500001D90320AFE784480068C0F3C06000288F
:104F6000F2D0207800F00400042804D0207800F06B
:104F70000800082863D100207A490867FFF734FE4B
:104F8000054606E0FFF730FE401B022801D903204A
:104F900091E775480068C0F340700028F2D120788E
:104FA00000F00400042819D16F4888300068C0F36D
:104FB000027620698101207D41EA006040EA0670A6
:104FC000694988310860081D006820F4F851206A9A
:104FD000401E41EA002064498C310860207800F0CE
:104FE0000800082817D1604888300068C0F30366BD
:104FF0002069800140EA0661207E41EA00705A493A
:1050000088310860081D006820F44030616A084358
:1050100055498C310860012052490867FFF7E4FDCB
:10502000054606E0FFF7E0FD401B022801D90320FA
:1050300041E74D480068C0F340700028F2D0207866
:1050400000F0200020287DD100BF002000904648BD
:105050004030006840F080504349403108600846C5
:10506000006800F08050009000BF00BF3F4800681B
:1050700040F480703D490860FFF7B6FD054606E044
:10508000FFF7B2FD401B022801D9032013E7374880
:10509000006800F480700028F2D033487030006857
:1050A00000F440764EB3208D00F44070B04224D01E
:1050B0002D487030006820F4407601202C490860AB
:1050C00000200860284870300660006800F0010089
:1050D00098B1FFF789FD054608E0FFF785FD401B05
:1050E00041F28831884201D90320E4E61E4870303D
:1050F0000068C0F340000028EFD000BF208D00F40E
:105100004070B0F5407F0CD117480830006820F49B
:10511000F810184AA16A1140084313490831086081
:1051200007E011480830006820F4F8100E490831F3
:1051300008600D4870300068218DC1F30B010843F1
:10514000094900E002E07031086000BF207800F0FB
:105150001000102803D194F82C00074908600020A3
:10516000A9E60000000047420038024000700040FD
:10517000400E4742FFFCFF0FE011474270B5044666
:105180000D460CB9012070BD5848006800F00F00B2
:10519000A84209D255490D700846006800F00F007A
:1051A000A84201D00120EEE7207800F0020002289A
:1051B0001DD1207800F00400042805D14C48006877
:1051C00040F4E0504A490860207800F008000828C0
:1051D00005D14748006840F46040454908604448AC
:1051E000006820F0F000A168084341490860207879
:1051F00000F00100A8B36068012807D13C480838D6
:105200000068C0F34040B8B90120BCE760680228DC
:1052100002D06068032807D1354808380068C0F319
:10522000406048B90120AEE7314808380068C0F353
:10523000400008B90120A6E72D48006820F00300CF
:10524000616808432A490860FFF7CEFC064609E07A
:10525000FFF7CAFC801B41F28831884202D9032043
:1052600091E707E02248006800F00C006168B0EBAD
:10527000810FEDD11D48006800F00F00A84209D948
:105280001A490D700846006800F00F00A84201D0CE
:10529000012078E7207800F00400042807D11448A2
:1052A000006820F4E050E168084311490860207864
:1052B00000F00800082808D10D48006820F460407C
:1052C000216940EAC1000A49086000F061F8084914
:1052D0000968C1F30311074A515CC84006490860D8
:1052E00006480068FFF7B0FC00204CE7003C024095
:1052F00008380240B4F800083C00002034000020C8
:105300000F2202600D4A126802F0030242600B4A4B
:10531000126802F0F0028260084A126802F4E05259
:10532000C260064A126802F46042D2080261044A6E
:10533000126802F00F020A6070470000083802404D
:10534000003C024001480068704700003C0000201B
:1053500000B5FFF7F7FF04490968C1F38221034A4A
:10536000515CC84000BD000008380240C4F8000885
:1053700000B5FFF7E7FF04490968C1F34231034A6A
:10538000515CC84000BD000008380240C4F8000865
:105390002DE9F047002400250026A1462548006895
:1053A00000F00C0020B1042805D008283AD105E00F
:1053B000DFF8849039E0DFF8849036E01D48001F64
:1053C000006800F03F041B48001F006800F48000E4
:1053D00078B11A481749091F0968C1F38811A0FB61
:1053E00001700146224600233846FBF726F80546A1
:1053F0000EE011480F49091F0968C1F38811A0FB8D
:1054000001700146224600233846FBF716F8054690
:105410000848001F0068C0F30140401C4600B5FB6F
:10542000F6F902E0DFF8109000BF00BF4846BDE883
:10543000F0870000083802400024F40000127A00CF
:10544000F8B504460CB90120F8BD207800F0010041
:10545000002874D0F948006800F00C0004280DD032
:10546000F648006800F00C00082813D1F348001F2C
:10547000006800F48000B0F5800F0BD1EF480838C9
:105480000068C0F34040002859D06068002856D119
:105490000120D9E700BF6068B0F5803F08D1E74838
:1054A0000838006840F48030E449083908601EE09C
:1054B0006068B0F5A02F0DD1E0480838006840F4CE
:1054C0008020DE49083908600846006840F48030D2
:1054D00008600CE0D9480838006820F48030D749CB
:1054E000083908600846006820F48020086000BF82
:1054F000606890B1FFF778FB054606E0FFF774FBA4
:10550000401B642801D903209EE7CC480838006876
:10551000C0F340400028F1D011E0FFF765FB0546DD
:1055200006E0FFF761FB401B642801D903208BE7ED
:10553000C24808380068C0F340400028F1D1207804
:1055400000F0020002285FD1BC48006800F00C00A7
:1055500058B1BA48006800F00C0008281CD1B748C0
:10556000001F006800F48000B0B9B4480838006833
:10557000C0F3400020B1E068012801D0012063E7BA
:10558000AE480838006820F0F800216940EAC10000
:10559000AA490839086037E0E06800B30120A8494B
:1055A0000860FFF721FB054606E0FFF71DFB401BE7
:1055B000022801D9032047E7A04808380068C0F353
:1055C00040000028F1D09D480838006820F0F8001D
:1055D000216940EAC10099490839086014E00020B7
:1055E00097490860FFF700FB054606E0FFF7FCFA65
:1055F000401B022801D9032026E79048083800689C
:10560000C0F340000028F1D1207800F008000828FD
:105610002CD16069A8B101208A490860FFF7E4FA3B
:10562000054606E0FFF7E0FA401B022801D90320F7
:105630000AE782486C300068C0F340000028F1D0CF
:1056400014E000207F490860FFF7CEFA054606E027
:10565000FFF7CAFA401B022801D90320F4E6774875
:105660006C300068C0F340000028F1D1207800F0D1
:105670000400042870D1002770483830006800F01A
:10568000805090B900BF002000906C48383000680E
:1056900040F080506949383108600846006800F0E1
:1056A0008050009000BF00BF01276748006800F4E9
:1056B0008070B0B96448006840F480706249086046
:1056C000FFF792FA054606E0FFF78EFA401B022824
:1056D00001D90320B8E65C48006800F48070002817
:1056E000F2D000BFA068012808D154486830006893
:1056F00040F001005149683108601DE0A0680528AC
:105700000DD14E486830006840F004004B496831C4
:1057100008600846006840F0010008600CE0474857
:105720006830006820F0010044496831086008468C
:10573000006820F00400086000BFA068A8B1FFF76F
:1057400053FA054609E0FFF74FFA401B41F2883152
:10575000884202D9032077E626E03848683000689E
:10576000C0F340000028EED013E0FFF73DFA0546F5
:1057700008E0FFF739FA401B41F28831884201D92D
:10578000032061E62D4868300068C0F3400000281F
:10579000EFD1012F07D129483830006820F0805020
:1057A00026493831086000BFA069002845D0234849
:1057B000006800F00C0008285DD0A069022845D1DF
:1057C00000201F490866FFF70FFA054606E0FFF7BD
:1057D0000BFA401B022801D9032035E61748083888
:1057E0000068C0F340600028F1D1D4E90701084304
:1057F000616A40EA81110122A06AC2EB500041EACD
:1058000000412C20005D41EA00600C49091F08603E
:1058100001200B490866FFF7E7F9054606E0FFF7A8
:10582000E3F9401B022801D903200DE6034808389C
:105830000068C0F340600028F1D03FE00838024023
:1058400000004742800E47420070004000201C4983
:105850000866FFF7C9F9054606E0FFF7C5F9401BE2
:10586000022801D90320EFE516480068C0F3406024
:105870000028F2D122E0A069012800D1E4E5114816
:10588000001D066806F48001E069814214D106F02B
:105890003F01206A81420FD147F6C0703040616AF3
:1058A000884209D106F44031A06A814204D106F051
:1058B0007061E06A814201D00120C5E50020C3E5A6
:1058C000000047420038024070B505460B461646B8
:1058D0000024286840680E4900EA0104200CD870B2
:1058E000C4F30420587004F03F009870C4F34230B1
:1058F00018705EB9D87802F0A9FFD870587802F015
:10590000A5FF5870987802F0A1FF9870002070BD34
:105910003FFFFF0070B504460B4616460025206881
:10592000806A586020680069C0F30E0098602068A3
:1059300000680F4900EA0105C5F305401870C5F37A
:105940000620587005F07F00987005F48000000C68
:10595000D8705EB9187802F079FF1870587802F0A4
:1059600075FF5870987802F071FF9870002070BD34
:105970007F7F7F0010B504460CB9012010BD607F09
:1059800020B900202077204600F060F802206077E0
:1059900000BFCA202168486253202168486200BFC6
:1059A000204602F06BFF40B100BFFF202168486233
:1059B00000BF042060770120E0E72068806822496A
:1059C000084021688860216960680843616908436C
:1059D000216889680843216888602168E068086157
:1059E00020680169208941EA004021680861206837
:1059F000C06820F080002168C8602068806800F0DE
:105A0000200060B9204600F045F940B100BFFF20FA
:105A10002168486200BF042060770120AEE720685B
:105A2000006C20F48020216808642068006CA16963
:105A300008432168086400BFFF202168486200BF56
:105A400001206077002099E7BFFF8FFF034A0168BC
:105A5000914202D10121024A1160704700280040A2
:105A60003C0E47422DE9F04104460D4616460027FC
:105A700000BF207F012802D10220BDE8F081012073
:105A8000207700BF022060774EB9687800F01000E0
:105A9000102804D1687800F0EF000A30687086B9E9
:105AA000E87802F0DEFE0304687802F0DAFE43EAEA
:105AB0000023A87802F0D5FE0343287843EA403754
:105AC00009E0E8780004697840EA0120A9780843F1
:105AD000297840EA413700BFCA2021684862532034
